:02000002D0002C
:1040000000400D00F8580D00000006000C000501EE
:0840100004019A080000000001
:044018006C560D00D5
:10401C0009480A49884208B505D0094A824202D0AB
:10402C00121A01F056FA0748074A0021121A01F039
:10403C005EFA014808BD00BF5CE5032064580D0022
:10404C00C8E50320C8E50320EDE7032070B5074E53
:10405C00074C00F0DFFCA41BA4080025A54200D1EE
:10406C0070BD56F8043B98470135F7E738580D00FA
:10407C005C580D0000F014B808B500F06FF8BDE8FE
:10408C00084000F07FBC00F0E5B900F0EBB9007817
:10409C00B0FA80F0400970470123037070470000AC
:1040AC0010B594B001F054F84FF4165101F044F8E7
:1040BC00254904A800F0E5FA234908A800F0E1FA24
:1040CC0000F002FC0A2201460CA800F000FB01F0F3
:1040DC003FF80C9900F08AFB0C9B049A1B49009347
:1040EC0010A8089B00F006FB194B109A1B788DF852
:1040FC00003018493C2302A800F0E4FD039C7CB17D
:10410C006368013B63605BB9236820469B689847F2
:10411C00A368013BA3601BB923682046DB68984762
:10412C0001F016F80C4900F074FB10A800F05EFAD0
:10413C000CA800F05BFA08A800F058FA04A800F0EC
:10414C0055FA14B010BD00BF80560D0088560D00F6
:10415C00C8E50320BF560D00CA560D00704700007D
:10416C00014B01221A707047C8E5032008B5024BB9
:10417C001B689B68019308BD6802030008B5024BDD
:10418C001B68DB68019308BD6802030008B5024B8D
:10419C001B685B68019308BD1802030008B5024B4D
:1041AC001B685B69019308BD1802030008B5024B3C
:1041BC001B689B6D019308BD1802030008B5024BE8
:1041CC001B685B6E019308BD1802030008B5024B17
:1041DC001B685B6C019308BD4802030008B5024BD9
:1041EC001B685B69019308BD6402030008B5024BB0
:1041FC001B681B68019308BD3C02030008B5024B09
:10420C001B68DB68019308BD3C02030008B5024B38
:10421C001B681B69019308BD3C02030008B5024BE7
:10422C001B685B69019308BD3C02030008B5024B97
:10423C001B689B69019308BD3C02030008B5024B47
:10424C001B68DB69019308BD3C02030008B5024BF7
:10425C001B689B6A019308BD3C02030008B5024B26
:10426C001B681B68019308BD4C02030008B5024B88
:10427C001B685B68019308BD4C02030008B5024B38
:10428C001B681B69019308BD4C02030008B5024B67
:10429C001B685B69019308BD4C02030008B5024B17
:1042AC001B689B69019308BD4C02030008B5024BC7
:1042BC001B68DB69019308BD4C02030008B5024B77
:1042CC001B681B6A019308BD4C02030008B5024B26
:1042DC001B681B68019308BD2002030008B5024B44
:1042EC001B685B68019308BD2002030008B5024BF4
:1042FC001B68DB6C019308BD2002030008B5024B60
:10430C001B685B6D019308BD2002030008B5024BCE
:10431C001B689B6D019308BD2002030008B5034B7D
:10432C001B68D3F88830019308BD000020020300FD
:10433C0008B5034B1B68D3F89430019308BD0000FB
:10434C002002030008B5024B1B685B68019308BD93
:10435C004002030008B5024B1B689B68019308BD23
:10436C004002030008B5024B1B68DB68019308BDD3
:10437C004002030008B5024B1B681B69019308BD82
:10438C004002030008B5024B1B685B69019308BD32
:10439C004002030008B5024B1B689B69019308BDE2
:1043AC004002030008B5024B1B68DB69019308BD92
:1043BC004002030008B5024B1B681B6A019308BD41
:1043CC004002030008B5024B1B681B6B019308BD30
:1043DC004002030008B5024B1B685B6B019308BDE0
:1043EC004002030008B5024B1B681B6C019308BD0F
:1043FC004002030008B5024B1B685B6C019308BDBF
:10440C004002030008B5024B1B689B68019308BD72
:10441C004402030008B5024B1B685B69019308BD9D
:10442C004402030008B5024B1B681B6A019308BDCC
:10443C004402030008B5024B1B681B6B019308BDBB
:10444C004402030008B5024B1B68DB6B019308BDEB
:10445C004402030008B5024B1B681B68019308BD9E
:10446C001C02030008B5024B1B685B68019308BD76
:10447C001C02030008B5024B1B689B68019308BD26
:10448C001C02030008B5024B1B685B6A019308BD54
:10449C001C02030008B5024B1B68DB6A019308BDC4
:1044AC001C02030008B5024B1B681B6B019308BD73
:1044BC001C02030008B5024B1B685B6C019308BD22
:1044CC001C020300002240681146FFF773BF002254
:1044DC0040681146FFF77EBF40680022FFF772BFAD
:1044EC004068002281F00101FFF75CBF00234068A7
:1044FC001A461946FFF74EBF002340681A46194664
:10450C00FFF740BF002240681146FFF733BF00227F
:10451C0040681146FFF71EBF406800220221FFF7DA
:10452C0021BF002340681A46FFF70CBF024B032241
:10453C005A60024A1A607047CCE50320DC560D0025
:10454C00054B02221A60054B054A9A600020186040
:10455C0098809871FFF7C2BEE0E50320D4E50320F4
:10456C000000FFFF2DE9F041931E8CB0222B4FF081
:10457C0000030D4614468DF82C3027D900282ADA72
:10458C002E462D2306F8013B40420A240DF12B0741
:10459C004FF001082246014601A800F086FF029B5D
:1045AC000198092BCCBF3722302252FA83F307F83B
:1045BC00013908F101080028ECD14246791C30463B
:1045CC0000F087FF28460CB0BDE8F0810A2AD5D050
:1045DC0018B12E46DAE70A24FAE730238DF82B308F
:1045EC002E460DF12A074FF00208E6E710B50446F7
:1045FC000068FFF737FF204610BD10B50446006871
:10460C0008B1FFF72FFF0023C4E90133236010BD6D
:10461C0038B504460D4600680131FFF72BFF10B189
:10462C00C4E90005012038BD10B50368044623B168
:10463C0043688B4201D3012010BD2046FFF7E8FFF1
:10464C000028F9D0A368002BF5D122681370F2E78B
:10465C0037B50D46114601920446FFF7E5FF019A66
:10466C0028B92046FFF7C9FF204603B030BDA26031
:10467C002946206800F02DFF2268A3680021D15440
:10468C00F2E7002313B5C0E90033044683600373DB
:10469C0041B10846019100F074FF01990246204691
:1046AC00FFF7D6FF204602B010BD13B5044659B132
:1046BC000846019100F065FF019902462046FFF77C
:1046CC00C7FF204602B010BDFFF797FFF9E710B502
:1046DC0004468AB00023C4E90033A3602373084660
:1046EC0001A9FFF73FFF01A92046FFF7DEFF204697
:1046FC000AB010BD0EB470B587B00BAD044655F8BA
:10470C00042B01922B46052104A80395FFF7BAFE52
:10471C000B4906462046FFF7B4FF31462046FFF70B
:10472C0083FF206830B1019A03952B46711CFFF76B
:10473C00A9FEA060204607B0BDE8704003B07047EA
:10474C0087560D0010B5036804469B689847A3680C
:10475C00013BA3602BB923682046DB68BDE8104001
:10476C00184710BD0B68036013B15A6801325A60C8
:10477C00704710B50446006828B14368013B43609C
:10478C000BB9FFF7DFFF204610BD000002480023E5
:10479C000360FFF71BBD00BFE4E50320F8B5064638
:1047AC000D468F180024BD420CD0336815F8011B40
:1047BC009B6830469847031E01DB1C44F3E7002C32
:1047CC0008BF1C462046F8BD13B50446084659B12F
:1047DC00019100F0D6FE23680199DB680246204661
:1047EC0002B0BDE81040184702B010BD08B5FFF785
:1047FC00EBFF08BD03689B68184738B50D210546CB
:10480C00FFF7F8FF0A2104462846FFF7F3FF204480
:10481C0038BD38B50546FFF7D7FF04462846FFF7E5
:10482C00ECFF204438BD30B58BB000238DF824301C
:10483C00012A98BF0A2209AC0D46B1FBF2F101FB2B
:10484C00125303F0FF03092B94BF30333733DBB221
:10485C00AA4204F8013DEFD92146FFF7B5FF0BB092
:10486C0030BD0000014B024A1A607047E8E5032096
:10487C0010570D0008B50020FFF7DCFD28B1FFF73D
:10488C00C9FD80F00100C0B208BD0120FCE710B5E5
:10489C000020FFF78BFC0446A0B9FFF717FD012899
:1048AC0010D12046FFF732FD60B9FFF7E3FF10B9D6
:1048BC00FFF7A8FDF9E7FFF7DDFFBDE8104000208A
:1048CC00FFF774BC204610BD1FB5FFF7E0FF1022A8
:1048DC000021684600F00BFE00216846FFF76EFCD5
:1048EC00009805B05DF804FB024B1A68024B1A6085
:1048FC00704700BF5CE50320ECE5032010B583682E
:10490C00044613B1032201469847204610BD13B547
:10491C000B460246D0E900016C4684E8030093E89C
:10492C00030082E8030094E8030083E8030002B06C
:10493C0010BD0000014B00229A607047F0E5032087
:10494C00014B1860704700BF60E5032008B50B4BA6
:10495C0043B100F0FDFB03681B699847002801DD9B
:10496C00AFF30080064B43B100F06CFC03681B698D
:10497C009847002801DDAFF3008008BD000000005F
:10498C000000000008B5FFF7E1FFFFF707FC014B43
:10499C00186008BD50E703200548064A064908B5CB
:1049AC00121A00F096FD054B054A1A6008BD00BFAF
:1049BC0000F4032004F4032060580D0000F40320DD
:1049CC001E1C279A07B5002300931A466FF0770137
:1049DC00FFF7AEFC03B05DF804FB000007B543889D
:1049EC000A2B08D0502B0BD1094B1B684BB103B0D1
:1049FC005DF804EB1847FFF7E5FF03B05DF804FB27
:104A0C00002300931A466FF07701FFF791FCF4E74F
:104A1C0004E6032010B512480021FFF74BFD114BA3
:104A2C001A68114B9A42114B0CBF012200221A70CA
:104A3C0001D0FFF7B1FFFFF7A9FB044600F060FDC2
:104A4C000B4B13B12046AFF3008000210848FFF751
:104A5C00F9FCBDE8104007480021FFF75FBC00BF20
:104A6C004D490D0000F403201E1C279A00E603207C
:104A7C0000000000E9490D0070470020704710B598
:104A8C001021044600F006FD204610BD08B5FFF7C6
:104A9C00F6FF08BD30B500224FF69C74026084808E
:104AAC008D888C800C68858004600A6030BD10B5E0
:104ABC0004460068FFF7D6FC204610BD38B5C46824
:104ACC00F4B12378022B03D104F10C00FFF7EFFFB4
:104ADC00656835B12846FFF711FF1021284600F014
:104AEC00D9FCA56835B12846FFF708FF10212846E8
:104AFC0000F0D0FC20461421BDE8384000F0CABCC0
:104B0C0038BD73B50E46044656F8043B00930D466B
:104B1C0001A83146FFF726FE019A009B62602360D4
:104B2C0001A8002301930093FFF723FE3046FFF703
:104B3C0020FE2846082100F0ADFC204602B070BDD6
:104B4C00826810B50AB900F0A7FCBDE81040C36834
:104B5C00184708B5006800F11001FFF7F1FF08BD18
:104B6C00826810B50AB900F097FCBDE81040C36824
:104B7C00184708B5006800F11001FFF7F1FF08BDF8
:104B8C0038B500230446036010200D46FFF77BFA6E
:104B9C0028B10123C0E90133024B0360C5602060DA
:104BAC00204638BD38570D0038B5002383608B681C
:104BBC0004460D462BB102229847EB68E360AB68C4
:104BCC00A360204638BD0000F0B589B00468684683
:104BDC00FFF760FF4FF00203D4E84F2F002A03D1F8
:104BEC00C4E8413F0029F7D125D104F10C056946F1
:104BFC002846FFF74FFFBFF35B8F01236370002044
:104C0C0004F10803BFF35B8F53E8006F43E8000225
:104C1C00002AF9D1BFF35B8F6EB1FFF767FB78B158
:104C2C0029463046FFF78CFF3046FFF767FE102110
:104C3C00304600F02FFC6846FFF739FF09B0F0BD95
:104C4C00314602A8FFF7B0FFE068B4F9105008B184
:104C5C0000F07AFC06901020ADF81C50FFF713FA08
:104C6C000546E8B1002787601820FFF70CFA0446C8
:104C7C0088B10146876002A8FFF749FE049BA26831
:104C8C00A360059B049206A9E268E36004F110009E
:104C9C000592FFF7FFFE084BEB60084B2C60AB60F6
:104CAC0006A8FFF704FF02A8FFF728FE00222946FA
:104CBC000348FFF723FBB7E75F4B0D00F54D0D00E5
:104CCC009D520D002DE9F0478AB005469DF848909D
:104CDC000C4617469846FFF79DFB07AE824638BB3D
:104CEC004FF62E73059005A93046ADF81830FFF736
:104CFC00D1FE1420FFF7C7F9044648B10223037014
:104D0C000123C0E901AA437031460C30FFF7C2FE03
:104D1C002846214640F8044BFFF732FF3046FFF798
:104D2C00C6FE05A8FFF7C3FE28460AB0BDE8F0870B
:104D3C000C234FF0000A1420CDE908AA0793FFF7C3
:104D4C00A2F9014628B1C0E901AA80F800A080F8B8
:104D5C0001A004A80391FFF713FF224B089308202E
:104D6C00FFF791F9824628B1039B40F8043B04A954
:104D7C00FFF7F8FC00965FFA89F342463946204665
:104D8C00CDF824A0FFF74EFBB8B9039B5B7803F07A
:104D9C00FF0293B94FF69C7305A903A80592ADF8D1
:104DAC001830FFF711FF05A8FFF781FE05A8099938
:104DBC00FFF7A7FE06A8FFF7DCFC039B059304A9ED
:104DCC0006A8FFF7CFFC059B069A2B606A600023B0
:104DDC0006A806930593FFF7CCFC04A8FFF7C9FCC3
:104DEC00A2E700BFB94E0D00022AF8B5054607D060
:104DFC00032A18D0012A01D10B6803600020F8BDEA
:104E0C0018200E68FFF73FF9044650B13146FFF702
:104E1C00CBFE3069B6F9147008B100F095FB206137
:104E2C00A7822C60EAE70468002CE7D004F110009C
:104E3C00FFF73DFE2046FFF761FD1821204600F0EC
:104E4C0029FBDBE738B5002383608B6804460D46ED
:104E5C002BB102229847EB68E360AB68A360204655
:104E6C0038BD022A70B5044607D0032A12D0012A95
:104E7C0001D10B680360002070BD14200E68FFF791
:104E8C0002F9054620B13146FFF7DCFF337C2B7469
:104E9C002560F0E70468002CEDD02046FFF72EFDCE
:104EAC001421204600F0F6FAE5E70000F0B589B0D1
:104EBC0004460D4601A81146FFF723FEA4B124B207
:104ECC001DB1284600F040FB054601A803A9039537
:104EDC00ADF81040FFF778FE03A8FFF7E8FD02A835
:104EEC00FFF747FC09B0F0BD019D0123D5E84F2F1A
:104EFC00002A03D1C5E8413F0029F7D1EFD12B732C
:104F0C00BFF35B8F6B702B1DBFF35B8F53E8006F90
:104F1C0043E80042002AF9D1BFF35B8F002EDED0AC
:104F2C002046FFF7E3F9074660B105F10C01304666
:104F3C00FFF716FE3046FFF7E1FC1021304600F07B
:104F4C00A9FACCE7314603A8FFF77CFF2B7B8DF841
:104F5C001C301020FFF797F80546D0B1876014205D
:104F6C00FFF791F8044678B18760014603A8FFF774
:104F7C00CEFC059BA268A360069B0592E268E360E9
:104F8C009DF81C3006922374064BEB60064B2C608C
:104F9C00AB6003A8FFF7B2FC002229460348FFF7D9
:104FAC00ADF9C7E77F4B0D006F4E0D009D520D0004
:104FBC00704710B51821044600F06CFA204610BD5D
:104FCC00F0B5037D062B8DB00E4600F104074FF0B3
:104FDC00000412D000F1080515F8011D0A22304614
:104FEC00FFF721FCAF42044419D0002CF4D02E2141
:104FFC003046FFF7FFFB0444EEE72F236A463946A1
:10500C000A208DF80040FFF7E9F8684600F0B9FA7D
:10501C0033680246DB6869463046984704462046AA
:10502C000DB0F0BD10B5054B0446112240F8043B01
:10503C00002100F05CFA204610BD00BF54570D0053
:10504C000346074A10B543F8042B01F1100251F83E
:10505C00044B43F8044B9142F9D10A781A7010BDF5
:10506C0054570D0010B59DF8084044EA032343EA59
:10507C00024242EA016104234160037510BD13B57D
:10508C00CB7800938B784A780978FFF7EBFF02B066
:10509C0010BD417470477047704708B50021007C03
:1050AC00FFF7FCF840EAE07008BD08B50121007C70
:1050BC00FFF7F4F840EAE07008BD08B5007CFFF794
:1050CC00E5F820EAE07008BD08B5007CFFF7D6F8DB
:1050DC0020EAE07008BD13B50446007C0191FFF78F
:1050EC00D5F80028019901DC607C20B1207CFFF709
:1050FC00DDF820EAE07002B010BD007CFFF7DEB8EE
:10510C0010B51421044600F0C5F9204610BD00006E
:10511C0010B54FF47A73044608460021C4E9011314
:10512C00044B23600123207463741146FFF796F837
:10513C00204610BD68570D00007C0022FFF796B882
:10514C0010B514220446002100F0D1F9204610BD00
:10515C0010B50F4C88B003A8FFF7F2FF2178BFF30E
:10516C005B8F11F001010FD120460191FEF78FFFEB
:10517C00019948B103AA0748FFF7CAFF2046FEF77A
:10518C008BFF054800F08BF9024808B010BD00BF3A
:10519C0008E603200CE60320A3500D007047417471
:1051AC007047704708B5007CFFF750F820EAE070B4
:1051BC0008BD08B5007CFFF729F820EAE07008BDAF
:1051CC0008B5007CFFF732F840EAE07008BD08B57E
:1051DC00007CFFF723F840EAE07008BD007CFFF785
:1051EC002DB837B5457C04462DB1207C03B0BDE805
:1051FC003040FFF703B8007C0191FFF727F8002837
:10520C000199F2DC284603B030BD10B514210446D8
:10521C0000F040F9204610BD10B54FF0000C0446CC
:10522C00084611464FF47A72C4E901C2044A22605E
:10523C000122207462741A46FEF7D8FF204610BD76
:10524C0098570D0013B50D4C2178BFF35B8F11F0FF
:10525C00010110D120460191FEF719FF019950B1BF
:10526C00074B084A0848FFF7D7FF2046FEF714FF04
:10527C00064800F014F9044802B010BD20E60320E3
:10528C00A8E6032024E603202CE70320AF510D00F1
:10529C0010B5836804460BB900F0FEF8C368984754
:1052AC00A3681BB1032221462046984720461021B3
:1052BC00BDE8104000F0EEB8002240681146FFF740
:1052CC0059B8002240681146FFF774B800224068B4
:1052DC001146FFF77FB840680022FFF773B84068AB
:1052EC00002281F00101FFF75DB8002340681A46E7
:1052FC001946FFF74FB8002340681A461946FFF7C6
:10530C0041B8002240681146FFF724B840680022DB
:10531C000221FFF727B8002340681A46FFF712B89E
:10532C00024B04225A60024A1A60704740E703207D
:10533C00C8570D00002340681A46FFF703B84068B1
:10534C0000220221FFF70EB8002240681146FFF739
:10535C0001B8002240681146FFF70CB800234068E2
:10536C001A461946FFF70EB8002340681A4619462C
:10537C00FFF710B840680021FFF734B840680021EF
:10538C00FFF738B84068002281F00101FFF70AB836
:10539C0040680022FFF716B8002240681146FFF75C
:1053AC0019B8002240681146FFF704B82DE9F04304
:1053BC00002495B016460D460746FFF733FE2146EE
:1053CC0018220EA8009400F092F84023CDE90C347A
:1053DC0021466B460CAA3046FEF7D0FE0446002848
:1053EC0046D1024601216868FEF7C4FF02218046BF
:1053FC0022466868FEF7BEFF009E81462146002EBD
:10540C0036D0002934D17368022B03D00A2B0BD071
:10541C00F669F4E7B8F1000F04D07169384604312D
:10542C00FFF72DFE4146F3E7B9F1000F01D14946D4
:10543C00EEE77469102201A800F059F806238DF8E4
:10544C00143001AD04F108031834186859682A4661
:10545C0003C20833A3421546F7D101A906A807AD2C
:10546C00FFF7EEFD0FCD3C1D0FC42B682370DEE75C
:10547C000098FEF77BFE384615B0BDE8F0830000BF
:10548C00024B034A1A6000225A60704748E7032017
:10549C0004580D00FEF7F9BD08B5FEF7FBFF00231D
:1054AC0001461A46184600F075B8002910B591FB54
:1054BC00F2F402FB141306DB002B01DA01349B1A05
:1054CC00C0E9004310BD002BC4BF04F1FF349B188E
:1054DC00F6E70A44914200F1FF3300D1704710B552
:1054EC0011F8014B03F8014F9142F9D110BD024460
:1054FC000346934200D1704703F8011BF9E7000003
:10550C0038B50D4B1D68AB6B04467BB91820FEF704
:10551C00A1FF0A4A0A4BA863C0E90023094B836028
:10552C000B23838101220023C0E90423AB6B0022EF
:10553C001C615A6138BD00BF60E503200E33CDAB52
:10554C0034126DE6ECDE0500024B0146186800F0E3
:10555C0003B800BF60E5032037B5044608460D4686
:10556C0000F00FF8421C114620460192FEF79AFFFC
:10557C00044618B1019A2946FFF7ABFF204603B049
:10558C0030BD034613F8012B002AFBD1181A013841
:10559C00704700002DE9F843DFF8B8800646D8F8CC
:1055AC0000001F460D46914600F056F8254B1C682E
:1055BC0034B9254C1C60254B13B11B68C4F88830DA
:1055CC0063681F2B07DDD8F8000000F047F84FF098
:1055DC00FF30BDE8F8834EB3D4F8880088B91C4B73
:1055EC0023B9D8F8000000F038F8F0E74FF48470D5
:1055FC00FEF730FF0028F4D00023C0E94033C4F894
:10560C008800636840F8239001229A4000EB8301E4
:10561C00D0F800311343022EC0F80031C1F880706D
:10562C0002BFD0F804311A43C0F804216368D8F8DB
:10563C0000005A1C0233626044F8235000F00EF84C
:10564C000020C6E7E0E7032054E703200000000039
:10565C0061440D00C4E5032070477047704700009B
:10566C001D400D0059400D0081400D0085400D007E
:10567C000000000038352E33323536007B2022688E
:10568C006561727452617465223A20222573222C52
:10569C00202273706F32223A20222573222C202272
:1056AC0074696D655374616D70223A2022257322E2
:1056BC00207D0053656E736F724461746100507588
:1056CC00626C6973686564000000000000000000F3
:1056DC002F450D0025450D001B450D0011450D00F6
:1056EC0005450D00F9440D0081530D0089530D0043
:1056FC00ED440D00E5440D00DB440D00D1440D00DC
:10570C00B9530D006170700025592D256D2D256440
:10571C005425483A254D3A2553257A006173637414
:10572C00696D65000000000000000000854A0D0056
:10573C008B4A0D00C94A0D00994A0D00874A0D008D
:10574C000000000000000000CD4F0D00BD4F0D000B
:10575C00BF4F0D000000000000000000A5500D0020
:10576C000D510D00E3500D00A9470D00D5500D0053
:10577C00A7500D00B7500D0007510D00C7500D007C
:10578C009F500D000000000000000000A9510D000A
:10579C0017520D00EF510D00A9470D00BF510D0020
:1057AC00DB510D00CD510D00E9510D00AB510D0039
:1057BC00B1510D00000000000000000023530D004B
:1057CC0019530D000F530D00C5520D0003530D005E
:1057DC00F7520D0081530D0089530D00EB520D0053
:1057EC00E3520D00D9520D00CF520D00B9530D00EC
:1057FC00000000000000000041530D004B530D0051
:10580C0055530D005F530D0069530D0075530D007A
:10581C0081530D0089530D0091530D009D530D00C4
:10582C00A5530D00AF530D00B9530D006D410D0084
:10583C0039450D004D450D0099470D0071480D007F
:10584C00F5480D0041490D002D530D008D540D00F0
:04585C000000000048
:045860000000000044
:1058640028570D0064E5032000000000000000003C
:105874000000000000000000000000000000000024
:105884000000000000000000000000000000000014
:105894000000000000000000000000000000000004
:1058A40000000000000000000000000000000000F4
:1058B40000000000000000000000000000000000E4
:0C58C4000000000000000000E5E70320E9
:1058D000FFFFFFFF00000102030405060708090A95
:1058E0000B0C0D0E0F101112131415161718191A90
:0858F0001B1C1D1E1F202800D7
:0458F8007856341298
:04000003D000401CCD
:00000001FF
