:02000002D0002C
:1040000000400D004C5F0D00000006000C00050193
:0840100004019A080000000001
:04401800E45B0D0058
:10401C0009480A49884208B505D0094A824202D0AB
:10402C00121A01F031FD0748074A0021121A01F05B
:10403C0039FD014808BD00BFACDE0320B45E0D00A5
:10404C001CDF03201CDF0320EDE7032070B5074EB7
:10405C00074C01F045F9A41BA4080025A54200D18A
:10406C0070BD56F8043B98470135F7E7885E0D00A4
:10407C00AC5E0D0000F014B808B500F04DF8BDE8CA
:10408C00084001F0E5B800F0C5BF00F0CBBF0078E8
:10409C00B0FA80F0400970470123037070470000AC
:1040AC001FB501F01FFA4FF4E13101F00FFA154B77
:1040BC000121187801F064FC134B0121187801F0F0
:1040CC005FFC01F0B3FC114A01465723104800F085
:1040DC008BFA28B901F006FA0E4901F05AF8FEE7FE
:1040EC0040F29B134FF48052CDE9013264230093CC
:1040FC000748022304223C2100F032FB05B05DF896
:10410C0004FB00BFACDE0320ADDE0320801A0600EA
:10411C00B4E00320F85B0D002DE9F04F864C874E80
:10412C00DFF834A2DFF83492642387B023600027D1
:10413C002168FDB28D4232DA304600F027F918B909
:10414C00304600F071F9F7E7304600F025FA4AF8EE
:10415C002500304600F02EFA49F82500304600F0D4
:10416C001FF901F0BFF9764900F0F9FF01F0BAF937
:10417C000A225AF8251001F00EF801F0B3F9714932
:10418C0000F0EDFF01F0AEF959F8251080460A2237
:10419C0001F001F8404600F0E6FF0137C8E76A4F2E
:1041AC006A4E6B4D6B4B6C4A6C48029701960095AE
:1041BC0000F03AFCDFF884816749684A4B23486E6B
:1041CC0041F8040B013B506E42F8040B13F0FF0353
:1041DC00F5D11923DFF89CA1DFF89CB1049340467C
:1041EC0000F0D4F818B9404600F01EF9F7E75C4B24
:1041FC0093F80090484601F0EDFBB0FA80F14909C4
:10420C00484601F0CEFB404600F0C6F9CAF8000063
:10421C00404600F0CFF9CBF80000404600F0C0F863
:10422C0001F060F9464900F09AFF01F05BF90A22AF
:10423C005AF8041B00F0AFFF01F054F9414900F0AB
:10424C008EFF01F04FF90A225BF8041B00F0A3FF6C
:10425C0001F048F9434900F082FF01F043F932685C
:10426C00002A814660DA2D21059200F075FF059A2F
:10427C0051420A22484600F08EFF01F033F93A49C8
:10428C0000F06DFF01F02EF997F90020002A81460D
:10429C004CDA2D21059200F05FFF059A51420A225B
:1042AC00484600F078FF01F01DF9304900F057FF47
:1042BC0001F018F9274A1268002A814638DA2D21B4
:1042CC00059200F049FF059A51420A22484600F037
:1042DC0062FF01F007F9264900F041FF01F002F9F5
:1042EC0095F90020002A814624DA2D21059200F050
:1042FC0033FF059A51420A22484600F04CFF4846CB
:10430C0000F031FF049B03F1FF3919F0FF03049314
:10431C007FF465AFCDE901670E4B0F4A21680F485A
:10432C00009500F081FB47E71146A2E71146B6E77E
:10433C001146CAE71146DEE71CDF0320B4E0032078
:10434C002B5C0D00305C0D0050E2032020DF0320BD
:10435C0051E203204CE20320BCE0032024DF0320C5
:10436C00ADDE0320365C0D003C5C0D00475C0D009F
:10437C004F5C0D00E8E1032050E00320014800F001
:10438C0003B800BFB4E0032070470000034B93F860
:10439C00300093F83130C01AC0B2704754E2032099
:1043AC00064A92F8313092F8301099421EBF013310
:1043BC0003F0030382F83130704700BF54E203204E
:1043CC0070B50446006816460D4601F09FF920684A
:1043DC00036831469B6898470021206801F09DF9DD
:1043EC0029462068012201F08EF900252068036817
:1043FC001B69984758B90120013500F0FDFECA2D04
:10440C00F4D1206803685B699847C0B270BDC82DB1
:10441C00F7D10020FAE701790422FFF7D1BF017927
:10442C000622FFF7CDBF00002DE9F7430446FFF746
:10443C00F6FF06462046FFF7EEFF864200F08F801F
:10444C00861B4FF0570120686779DFF81C8148BF45
:10445C00203601F05FF92068036807219B689847B4
:10446C00206801F05EF9774307EB4707002F77DDF3
:10447C00202FC8BF65792068C5BF05EB45052022F4
:10448C003D46B2FBF5F2C8BF55432A46572101F011
:10449C003AF97F1B4FF00009002DE7DD98F830301A
:1044AC008DF80790013303F0030388F8303020684F
:1044BC0003685B6998478DF80600206803685B69A0
:1044CC0098478DF80500206803685B6998478DF85C
:1044DC000400019B98F83020C3F3110348F82230F4
:1044EC006379012B19D9206803685B6998478DF8AB
:1044FC000600206803685B6998478DF80500206802
:10450C0003685B69984798F830308DF80400019A7D
:10451C000433C2F3110248F823206379022B19D912
:10452C00206803685B6998478DF80600206803686B
:10453C005B6998478DF80500206803685B699847AC
:10454C0098F830308DF80400019A0833C2F3110248
:10455C0048F823206379A3EB83031D449CE70026D2
:10456C00B0B203B0BDE8F08354E2032070B5054649
:10457C000E4600F0C3FB044600F0C0FB001BB0422B
:10458C0008D82846FFF750FF012804D0012000F07E
:10459C0033FEF1E7002070BD08B5FA21FFF7E6FF06
:1045AC0020B1034B93F8302053F8220008BD00BF14
:1045BC0054E2032008B5FA21FFF7D8FF28B1034ACB
:1045CC0092F83030043352F8230008BD54E2032033
:1045DC000179FF22FFF7F4BE10B5FE2201790446E3
:1045EC00FFF7EEFEA07110BD37B5044608462160FA
:1045FC001D46019201F058F80199206801F050F81D
:10460C0025712046FFF7E4FF2046FFF7E5FF012068
:10461C0003B030BD70B50446006816461D4601F067
:10462C0075F82068036831469B68984720680368D2
:10463C0029469B6898472068BDE8704001F071B826
:10464C000B460C220179FFF7E5BF0B460D220179D1
:10465C00FFF7E0BF0B460E220179FFF7DBBF0B46DD
:10466C0010220179FFF7D6BF10B50446017900235B
:10467C000422FFF7CFFF2179204600230522FFF704
:10468C00C9FF217920460023BDE810400622FFF720
:10469C00C1BF2DE9F0410D4617460A460179044683
:1046AC001E46FFF78DFE00EA0703217933432A46A5
:1046BC002046BDE8F041FFF7ADBF38B5BF2240231F
:1046CC0009210446FFF7E5FF00F018FB054600F052
:1046DC0015FB401B63280AD8217909222046FFF7D5
:1046EC006FFE430603D5012000F086FDEFE738BDD1
:1046FC000B46F8220921FFF7CCBF0B469F220A215B
:10470C00FFF7C7BF0B46E3220A21FFF7C2BF0B46D8
:10471C00FC220A21FFF7BDBF0B461F220821FFF721
:10472C00B8BF1023EF220821FFF7B3BF013913469E
:10473C00032914D8DFE801F002060B0EF822112130
:10474C00FFF7A7BF1B0103F0F0038F22F7E7F82256
:10475C001221F5E71B0103F0F0038F22F8E77047F5
:10476C002DE9F0471546DDE90879DDF828A0044667
:10477C0088461E46FFF7A1FF012D4AD10021204695
:10478C00FFF7CAFF2046FFF7CCFF032E55D10721B8
:10479C002046FFF7ADFFBAF5805F667152DA002153
:1047AC002046FFF7AAFF632F59DC00212046FFF7B4
:1047BC00A9FFB9F1750F72DC00212046FFF7A7FFA6
:1047CC0041462046FFF73CFF41462046FFF73DFFA0
:1047DC0041462046FFF73EFF41462046FFF73FFF8C
:1047EC00012211462046FFF7A1FF012E0CD92023F0
:1047FC008F2211212046FFF74CFF022E04D00322FA
:10480C0011462046FFF792FF2046BDE8F047FFF720
:10481C002BBF022D01D12021B1E7042D01D1402164
:10482C00ADE7082D01D16021A9E7102D01D1802120
:10483C00A5E7202DF3D1A021A1E7022E0CBF032167
:10484C000221A5E7BAF5005F01DA2021A8E7BAF545
:10485C00804F01DA4021A3E7A1D16021A0E7C72F47
:10486C0001DC0421A2E7B7F5C87F01DA08219DE736
:10487C00B7F5487F01DA0C2198E7B7F57A7F01DAB2
:10488C00102193E7B7F5C86F01DA14218EE7B7F55D
:10489C00486F01DA182189E787D11C2186E7B9F125
:1048AC00D60F01DC012188E7B9F5CD7F01DC0221AF
:1048BC0083E740F29B1399457FF47EAF03217CE79D
:1048CC002DE9F04100240C6003F1FF380124A045D0
:1048DC0027DD069D52F824C0AC454FEA840604F14E
:1048EC0001051CDD164456F8046CB44517DD2E4644
:1048FC009E4252F82670A6EB040E354603D0BC45FA
:10490C0006F10106F4D0BC4509DD0E680E2E06DC5E
:10491C00751C0D600EF1010540F8264025442C460F
:10492C00D5E7BDE8F081F0B5012304468B420FDAE0
:10493C0054F8046F1A46254655F8047CB74203DD3B
:10494C00013A45F80479F7D140F822600133EDE7DC
:10495C00F0BD2DE9F043012390460D46434516DA90
:10496C0055F8046F1C4600EB8609AC46D9F80020BC
:10497C005CF8047C964650F82720964503DD013CF4
:10498C004CF80479F2D141F824600133E6E7BDE834
:10499C00F0832DE9F04104461E4610460D460A6888
:1049AC002146FFF7D6FF271F4FF0FF32C6F1000854
:1049BC0029689142944620DD013210462A608142DA
:1049CC0001D10437F4E7BCF1FF3F18BFD7F800E082
:1049DC0054F8203008BFE646A3EB0E03B34201DCCB
:1049EC00984508DDD5F800E00EF101032B6054F872
:1049FC00203044F82E300130E1E72046BDE8F0418C
:104A0C00FFF791BFF7B5089F00970C46FFF758FFCB
:104A1C00099BFFF7BEFF22680A9B9A42D4BF226013
:104A2C00236003B0F0BD00002DE9F04F904600224A
:104A3C009B469FB005460C461346A24204DA55F835
:104A4C00221001320B44F8E7DFF83092B3FBF4F399
:104A5C0048460022A24206DA55F82210591A40F8AC
:104A6C00041B0132F6E7854A0021136852F8040F43
:104A7C0003445068034490681B1848BF033301314A
:104A8C009B10602942F8043CEFD100237B491A4665
:104A9C0051F8040B0132642A0344F9D140F6B731C2
:104AAC008B424BDD93FBF2F33C2BA8BF3C230FAEA8
:104ABC0000223146924601320F2A41F804ABFAD15A
:104ACC0002920422CDE9003209A964236B4A3046D4
:104ADC00FFF798FF099B012B32DDB646002201201F
:104AEC007146DEF804C009680130ACEB010C83425E
:104AFC000EF1040E6244F3D1591E92FBF1F240F216
:104B0C00DC5191FBF2F229990A602A9901220A7070
:104B1C005B480022A2421ADB0022CDE90A22CDE931
:104B2C000C220E920FA893421DDD50F8221064291E
:104B3C0017DD544BCBF80030002394E01E23B6E76E
:104B4C002999504A0A602A9A82F800A0E0E755F8A1
:104B5C00221049F8041B58F8221040F8041B0132AB
:104B6C00D8E70132DFE70021013B4448DFF810C1F0
:104B7C0007938846079B434559DDD6F804E056F861
:104B8C00043BAEEB0309B9F1030F08F10108F1DDA9
:104B9C004FF07F421D460592AE4510DD50F825A022
:104BAC00059C9245C8BF52465CF825A0C8BF069527
:104BBC00A245C4BF2F46CDF814A00135ECE750F840
:104BCC002E4050F82350A4EB050A069D059CED1AC7
:104BDC0005FB0AF595FBF9FA50F82350AA4450F856
:104BEC002750A5EB0A0A04FB0AF4E411002CC1DDE2
:104BFC000429BFDC5CF823505CF82EE0FB1AAEEB0A
:104C0C00050E03FB0EF393FBF9F32B445CF82750D2
:104C1C00ED1A6A43D211ADD01EAB03EB810E6423A7
:104C2C005A43013192FBF4F44EF8504CA2E70AA817
:104C3C00FFF779FE4A1003294FEA820318DD1EA9FB
:104C4C0001EB820151F8543C51F8502C134403EB06
:104C5C00D3735B10DA1EB42A3FF66BAF0A4AD35CEF
:104C6C00CBF800300123289A13701FB0BDE8F08FE9
:104C7C001EAA134453F8503CECE700BF88E2032013
:104C8C0018E4032019FCFFFF5C5C0D0008B5024B17
:104C9C001B689B68019308BD6802030008B5024BB2
:104CAC001B68DB68019308BD6802030008B5024B62
:104CBC001B689B68019308BD2C02030008B5024BCE
:104CCC001B68DB68019308BD2C02030008B5024B7E
:104CDC001B681B69019308BD2C02030008B5024B2D
:104CEC001B685B69019308BD2C02030008B5024BDD
:104CFC001B685B68019308BD1802030008B5024BE2
:104D0C001B685B69019308BD1802030008B5024BD0
:104D1C001B685B6C019308BD4802030008B5024B8D
:104D2C001B685B69019308BD6402030008B5024B64
:104D3C001B681B68019308BD3C02030008B5024BBD
:104D4C001B68DB68019308BD3C02030008B5024BED
:104D5C001B681B69019308BD3C02030008B5024B9C
:104D6C001B685B69019308BD3C02030008B5024B4C
:104D7C001B689B69019308BD3C02030008B5024BFC
:104D8C001B68DB69019308BD3C02030008B5024BAC
:104D9C001B681B6A019308BD3C02030008B5024B5B
:104DAC001B689B6A019308BD3C02030008B5024BCB
:104DBC001B681B68019308BD2802030008B5024B51
:104DCC001B68DB68019308BD2802030008B5024B81
:104DDC001B689B69019308BD2802030008B5024BB0
:104DEC001B68DB69019308BD2802030008B5024B60
:104DFC001B681B6A019308BD2802030008B5024B0F
:104E0C001B685B6A019308BD2802030008B5024BBE
:104E1C001B689B6A019308BD2802030008B5024B6E
:104E2C001B68DB6A019308BD2802030008B5024B1E
:104E3C001B681B6B019308BD2802030008B5024BCD
:104E4C001B685B6B019308BD2802030008B5024B7D
:104E5C001B681B6C019308BD2802030008B5024BAC
:104E6C001B681B6D019308BD2802030008B5024B9B
:104E7C001B68DB69019308BD3002030008B5024BC7
:104E8C001B681B6A019308BD3002030008B5024B76
:104E9C001B681B68019308BD4C02030008B5024B4C
:104EAC001B685B68019308BD4C02030008B5024BFC
:104EBC001B681B69019308BD4C02030008B5024B2B
:104ECC001B685B69019308BD4C02030008B5024BDB
:104EDC001B689B69019308BD4C02030008B5024B8B
:104EEC001B68DB69019308BD4C02030008B5024B3B
:104EFC001B681B6A019308BD4C02030008B5024BEA
:104F0C001B685B68019308BD2002030008B5024BC7
:104F1C001B685B69019308BD2002030008B5034BB5
:104F2C001B68D3F88830019308BD000020020300F1
:104F3C0008B5034B1B68D3F89430019308BD0000EF
:104F4C002002030008B5024B1B685B68019308BD87
:104F5C004002030008B5024B1B689B68019308BD17
:104F6C004002030008B5024B1B68DB68019308BDC7
:104F7C004002030008B5024B1B681B69019308BD76
:104F8C004002030008B5024B1B685B69019308BD26
:104F9C004002030008B5024B1B689B69019308BDD6
:104FAC004002030008B5024B1B68DB69019308BD86
:104FBC004002030008B5024B1B681B6A019308BD35
:104FCC004002030008B5024B1B681B6B019308BD24
:104FDC004002030008B5024B1B685B6B019308BDD4
:104FEC004002030008B5024B1B681B6C019308BD03
:104FFC004002030008B5024B1B685B6C019308BDB3
:10500C004002030008B5024B1B68DB6B019308BD23
:10501C004402030008B5024B1B681B68019308BDD2
:10502C001C02030008B5024B1B685B68019308BDAA
:10503C001C02030008B5024B1B685B6C019308BD96
:10504C001C020300002240681146FFF7B3BF002288
:10505C0040681146FFF7BEBF40680022FFF7B2BFA1
:10506C004068002281F00101FFF79CBF00234068DB
:10507C001A461946FFF78EBF002340681A46194698
:10508C00FFF780BF002240681146FFF773BF002274
:10509C0040681146FFF75EBF406800220221FFF70F
:1050AC0061BF002340681A46FFF74CBF024B032236
:1050BC005A60024A1A607047A8E503201C5D0D0077
:1050CC0010B5044608462170FFF7D0FE002363603C
:1050DC00204610BD054B02221A60054B054A9A600A
:1050EC000020186098809871FFF708BFBCE503207A
:1050FC00B0E503200000FFFF024800230360FFF728
:10510C0005BE00BFC0E50320F8B506460D468F1856
:10511C000024BD420CD0336815F8011B9B68304647
:10512C009847031E01DB1C44F3E7002C08BF1C4608
:10513C002046F8BD13B50446084659B1019100F05C
:10514C00DDFC23680199DB680246204602B0BDE80D
:10515C001040184702B010BD03689B68184708B58B
:10516C00FFF7E8FF08BD38B50D210546FFF7F4FF42
:10517C000A2104462846FFF7EFFF204438BD38B516
:10518C000546FFF7D7FF04462846FFF7ECFF2044FF
:10519C0038BDFFF7F4BF30B58BB000238DF8243049
:1051AC00012A98BF0A2209AC0D46B1FBF2F101FBB2
:1051BC00125303F0FF03092B94BF30333733DBB2A8
:1051CC00AA4204F8013DEFD92146FFF7B3FF0BB01B
:1051DC0030BD0000014B024A1A607047C4E5032041
:1051EC00505D0D00024B1A68024B1A60704700BFED
:1051FC00B0DE0320C8E503200021FFF787BE0000C6
:10520C00014B00229A607047CCE50320014B1860DB
:10521C00704700BFB4DE032008B50B4B43B100F060
:10522C0061F903681B699847002801DDAFF3008022
:10523C00064B43B100F0D0F903681B69984700286E
:10524C0001DDAFF3008008BD00000000000000008D
:10525C0008B5FFF7E1FFFFF751FD014B186008BDE2
:10526C0038E703200548064A064908B5121A00F02B
:10527C000BFC054B054A1A6008BD00BF00F4032067
:10528C0004F40320B05E0D0000F403201E1C279ACA
:10529C0007B5002300931A466FF07701FFF748FE1D
:1052AC0003B05DF804FB000007B543880A2B08D057
:1052BC00502B0BD1094B1B684BB103B05DF804EBC1
:1052CC001847FFF7E5FF03B05DF804FB00230093DC
:1052DC001A466FF07701FFF72BFEF4E7E0E50320A9
:1052EC0010B512480021FFF7A5FE114B1A68114B9F
:1052FC009A42114B0CBF012200221A7001D0FFF709
:10530C00B1FFFFF7F3FC044600F0D4FB0B4B13B1D9
:10531C002046AFF3008000210848FFF773FEBDE87C
:10532C00104007480021FFF7F9BD00BF19520D00CE
:10533C0000F403201E1C279ADCE50320000000006B
:10534C00B5520D00704710B51821044600F092FBC1
:10535C00204610BDF0B5037D062B8DB00E4600F136
:10536C0004074FF0000412D000F1080515F8011DD8
:10537C000A223046FFF70FFFAF42044419D0002C2D
:10538C00F4D02E213046FFF7E7FE0444EEE72F233E
:10539C006A4639460A208DF80040FFF7BFFC684684
:1053AC0000F0ACFB33680246DB6869463046984730
:1053BC00044620460DB0F0BD10B5054B0446112235
:1053CC0040F8043B002100F06DFB204610BD00BFEF
:1053DC00785D0D000346074A10B543F8042B01F124
:1053EC00100251F8044B43F8044B9142F9D10A785E
:1053FC001A7010BD785D0D0010B59DF8084044EA98
:10540C00032343EA024242EA01610423416003752B
:10541C0010BD13B5CB7800938B784A780978FFF7D9
:10542C00EBFF02B010BD417470477047704708B570
:10543C000021007CFFF74AFD40EAE07008BD08B58A
:10544C000121007CFFF742FD40EAE07008BD08B581
:10545C00007CFFF733FD20EAE07008BD08B5007C46
:10546C00FFF724FD20EAE07008BD13B50446007C6C
:10547C000191FFF723FD0028019901DC607C20B12C
:10548C00207CFFF72BFD20EAE07002B010BD007C01
:10549C00FFF72CBD10B51421044600F0EBFA2046A2
:1054AC0010BD000010B54FF47A7304460846002175
:1054BC00C4E90113044B2360012320746374114667
:1054CC00FFF7E4FC204610BD8C5D0D00007C002233
:1054DC00FFF7E4BC10B514220446002100F0E2FAF8
:1054EC00204610BD10B50F4C88B003A8FFF7F2FF93
:1054FC002178BFF35B8F11F001010FD12046019190
:10550C00FEF7C5FD019948B103AA0748FFF7CAFF8A
:10551C002046FEF7C1FD054800F0B0FA024808B07D
:10552C0010BD00BFE4E50320E8E5032037540D006F
:10553C00704741747047704708B5007CFFF72EFC2C
:10554C0020EAE07008BD08B5007CFFF7FFFB20EAFD
:10555C00E07008BD08B5007CFFF708FC40EAE0707D
:10556C0008BD08B5007CFFF7F9FB40EAE07008BD08
:10557C00007CFFF703BC37B5457C04462DB1207C7D
:10558C0003B0BDE83040FFF7D9BB007C0191FFF7B9
:10559C0005FC00280199F2DC284603B030BD10B59B
:1055AC001421044600F066FA204610BD10B54FF0E9
:1055BC00000C0446084611464FF47A72C4E901C245
:1055CC00044A22600122207462741A46FFF7AEFB73
:1055DC00204610BDBC5D0D0013B50D4C2178BFF3FA
:1055EC005B8F11F0010110D120460191FEF74FFDA8
:1055FC00019950B1074B084A0848FFF7D7FF2046DE
:10560C00FEF74AFD064800F039FA044802B010BD16
:10561C00FCE5032084E6032000E6032008E70320D2
:10562C0043550D007047F8B5064615460C468F18C5
:10563C00BC4206D0336814F8011B9B68304698476F
:10564C00F6E72846F8BD007C0022FFF7CFBB007CB4
:10565C000021FFF7D3BB007C0021FFF7D7BB007CF8
:10566C000021FFF7DBBB007C0021FFF7DFBB10B58F
:10567C001421044600F0FEF9204610BD10B54FF47D
:10568C007A73044608460021C4E90113034B2360D6
:10569C0020741146FFF7DAFB204610BDEC5D0D00BF
:1056AC00007C0022FFF782BB0023007C1A461946BF
:1056BC00FFF784BB7FB500221423CDE90122ADF89E
:1056CC0004300B788DF808304B680393CB68049347
:1056DC00007C0B7A059301A9FFF7C0FB07B05DF8BE
:1056EC0004FB1FB5003B8DF800104FF064010391D3
:1056FC0018BF0123694601928DF80830FFF7DAFFD5
:10570C0005B05DF804FB0123FFF7EBBF007C002222
:10571C00FFF75CBBC9B2FFF7F9BF007C0022FFF7B3
:10572C005DBB0121FFF7F9BF002240681146FFF76E
:10573C0021BC002240681146FFF73CBC00224068A7
:10574C001146FFF747BC40680022FFF73BBC40689E
:10575C00002281F00101FFF725BC002340681A46A6
:10576C001946FFF717BC002340681A461946FFF785
:10577C0009BC002240681146FFF7ECBB40680022D0
:10578C000221FFF7EFBB002340681A46FFF7DABB94
:10579C00024B04225A60024A1A6070471CE703202D
:1057AC00145E0D00002340681A46FFF7CBBB40681F
:1057BC0000220221FFF7D6BB002240681146FFF7FA
:1057CC00C9BB002240681146FFF7D4BB00234068D8
:1057DC001A461946FFF7D6BB002340681A461946ED
:1057EC00FFF7D8BB40680021FFF7FCBB40680021E5
:1057FC00FFF700BC4068002281F00101FFF7D2BB2B
:10580C0040680022FFF7DEBB002240681146FFF71C
:10581C00E1BB002240681146FFF7CCBB2DE9F043F9
:10582C00002495B016460D460746FFF7C5FD2146E8
:10583C0018220EA8009400F035F94023CDE90C3461
:10584C0021466B460CAA3046FFF728FA044600287E
:10585C0046D1024601216868FFF78CFB0221804685
:10586C0022466868FFF786FB009E81462146002E83
:10587C0036D0002934D17368022B03D00A2B0BD0FD
:10588C00F669F4E7B8F1000F04D0716938460431B9
:10589C00FFF7BFFD4146F3E7B9F1000F01D14946CF
:1058AC00EEE77469102201A800F0FCF806238DF8CD
:1058BC00143001AD04F108031834186859682A46ED
:1058CC0003C20833A3421546F7D101A906A807ADB8
:1058DC00FFF780FD0FCD3C1D0FC42B682370DEE756
:1058EC000098FFF7D3F9384615B0BDE8F0830000F7
:1058FC00024B034A1A6000225A60704724E70320C7
:10590C00505E0D00232813B502D9002002B010BD43
:10591C00A0F10B03022B1AD8174C2178BFF35B8F25
:10592C0011F001010BD120460191FEF7B0FB01995A
:10593C0028B11248FFF7C4FB2046FEF7ADFB0F4B16
:10594C001878FFF79BFA0028DFD10120DEE7012849
:10595C0009D800F06BF80021007CFFF76FFA80F09B
:10596C000100C0B2D2E709380128EED8FFF734FEA7
:10597C00007CFFF70BFAF2E72CE7032030E703205B
:10598C00232838B504460D460AD8FF2908D0FFF75E
:10599C00B9FF28B129462046BDE83840FFF786B943
:1059AC0038BD38B504460D46FFF788F9FF2810D0EE
:1059BC00062804D84D2323FA00F0C30709D4204647
:1059CC00FFF7A0FF28B129462046BDE83840FFF775
:1059DC007DB938BD10B50446FFF770F9031FDBB273
:1059EC00012B08D92046FFF78DFF20B12046BDE8DA
:1059FC001040FFF773B9002010BD704738B5002375
:105A0C0020254380142304460380856005610649E4
:105A1C00284600F031F804496060284600F02CF864
:105A2C00E060204638BD00BF845E0D0030B50E4DE1
:105A3C002978BFF35B8F11F0010487B011D1284690
:105A4C00FEF725FB68B101A8FFF7D8FF01AA214694
:105A5C000648FFF713FE2846FEF71EFB044800F02D
:105A6C000DF8024807B030BD3CE7032040E70320A7
:105A7C00075A0D00FEF709BBFEF705BB00230146D4
:105A8C001A46184600F042B80A44914200F1FF331E
:105A9C0000D1704710B511F8014B03F8014F91423A
:105AAC00F9D110BD02440346934200D1704703F86C
:105ABC00011BF9E738B50D4B1D68AB6B04467BB980
:105ACC001820FFF7A7FA0A4A0A4BA863C0E900237B
:105ADC00094B83600B23838101220023C0E904233B
:105AEC00AB6B00221C615A6138BD00BFB4DE0320D1
:105AFC000E33CDAB34126DE6ECDE0500034613F825
:105B0C00012B002AFBD1181A013870472DE9F843F4
:105B1C00DFF8B8800646D8F800001F460D469146BF
:105B2C0000F056F8254B1C6834B9254C1C60254BED
:105B3C0013B11B68C4F8883063681F2B07DDD8F8D5
:105B4C00000000F047F84FF0FF30BDE8F8834EB38B
:105B5C00D4F8880088B91C4B23B9D8F8000000F0A1
:105B6C0038F8F0E74FF48470FFF754FA0028F4D0BB
:105B7C000023C0E94033C4F88800636840F82390E0
:105B8C0001229A4000EB8301D0F800311343022E1E
:105B9C00C0F80031C1F8807002BFD0F804311A434C
:105BAC00C0F804216368D8F800005A1C0233626004
:105BBC0044F8235000F00EF80020C6E7E0E703207D
:105BCC0054E703200000000021500D0018DF0320D3
:105BDC0070477047704700001D400D0059400D0084
:105BEC0081400D0085400D00000000004D415833F0
:105BFC003031303520776173206E6F7420666F758D
:105C0C006E642E20506C6561736520636865636BF0
:105C1C0020776972696E672F706F7765722E0072CC
:105C2C0065643D002C2069723D002C2048523D00DB
:105C3C002C20485276616C69643D002C2053504FE7
:105C4C00323D002C2053504F3256616C69643D003C
:105C5C005F5F5F606060616161616162626262622C
:105C6C0063636363636363636464646464646464F0
:105C7C0064646464646464646464646463636363DC
:105C8C0063636363626262626262616161616060EC
:105C9C0060605F5F5F5E5E5E5D5D5D5C5C5C5B5B20
:105CAC005A5A59595958585757565655555454537A
:105CBC005252515150504F4E4E4D4C4C4B4A4A49FA
:105CCC004848474645454443424241403F3E3E3D9D
:105CDC003C3B3A39383837363534333231302F2E65
:105CEC002D2C2B2A2928272625242322211F1E1D53
:105CFC001C1B1A19171615141311100F0E0C0B0A66
:105D0C000907060503020100000000000000000066
:105D1C00AF500D00A5500D009B500D0091500D0083
:105D2C0085500D0079500D00F1570D00F9570D00FD
:105D3C006D500D0065500D005B500D0051500D0065
:105D4C0029580D006170700025592D256D2D256485
:105D5C005425483A254D3A2553257A0061736374CE
:105D6C00696D6500000000000000000061530D002B
:105D7C0051530D0053530D000000000000000000B3
:105D8C0039540D00A1540D0077540D0015510D0020
:105D9C0069540D003B540D004B540D009B540D00E9
:105DAC005B540D0033540D00000000000000000097
:105DBC003D550D00AB550D0083550D0015510D00D3
:105DCC0053550D006F550D0061550D007D550D009F
:105DDC003F550D0045550D0000000000000000006F
:105DEC0031560D007B560D0053560D0033560D00E9
:105DFC005B560D0063560D006B560D0073560D006F
:105E0C00000000000000000093570D0089570D00A2
:105E1C007F570D0035570D0073570D0067570D0058
:105E2C00F1570D00F9570D005B570D0053570D003E
:105E3C0049570D003F570D0029580D000000000078
:105E4C0000000000B1570D00BB570D00C5570D00E9
:105E5C00CF570D00D9570D00E5570D00F1570D0028
:105E6C00F9570D0001580D000D580D0015580D0077
:105E7C001F580D0029580D000000000089430D002B
:105E8C00B9500D00E1500D0005510D00E1510D0010
:105E9C00F1510D000D520D009D570D00FD580D00D8
:045EAC0000000000F2
:045EB00000000000EE
:105EB4000B0D0000685D0D00B8DE0320000000003B
:105EC40000000000000000000000000000000000CE
:105ED40000000000000000000000000000000000BE
:105EE40000000000000000000000000000000000AE
:105EF400000000000000000000000000000000009E
:105F0400000000000000000000000000000000008D
:105F1400000000000000000000000000E5E703208E
:105F2400FFFFFFFF00000102030405060708090A3A
:105F34000B0C0D0E0F101112131415161718191A35
:085F44001B1C1D1E1F2028007C
:045F4C00785634123D
:04000003D000401CCD
:00000001FF
