:02000002D0002C
:1040000000400D0028570D00000006000C000501BF
:0840100004019A080000000001
:0440180090540D00B3
:10401C0009480A49884208B505D0094A824202D0AB
:10402C00121A01F068F90748074A0021121A01F028
:10403C0070F9014808BD00BF5CE5032094560D00E3
:10404C00C8E50320C8E50320EDE7032070B5074E53
:10405C00074C00F005FCA41BA4080025A54200D1C8
:10406C0070BD56F8043B98470135F7E76C560D00C8
:10407C0090560D0000F014B808B500F06BF8BDE8D0
:10408C00084000F0A5BB00F0B1B900F0B7B900785A
:10409C00B0FA80F0400970470123037070470000AC
:1040AC0010B594B000F07AFF4FF4165100F06AFF8F
:1040BC00214904A800F06DFA204908A800F069FA1B
:1040CC001F490CA800F065FA0C9B049A1D4900933B
:1040DC0010A8089B00F072FA1B4B109A1B788DF8F5
:1040EC0000301A493C2302A800F012FD039C7CB15D
:1040FC006368013B63605BB9236820469B68984703
:10410C00A368013BA3601BB923682046DB68984772
:10411C0000F044FF0E4900F0DCFA10A800F0EEF9B4
:10412C000CA800F0EBF908A800F0E8F904A800F0DE
:10413C00E5F914B010BD00BFA4540D00A9540D0036
:10414C00AC540D00B8540D00C8E50320ED540D001F
:10415C00FC540D0070470000014B01221A7070478F
:10416C00C8E5032008B5024B1B689B68019308BD8A
:10417C006802030008B5024B1B68DB68019308BD9D
:10418C006802030008B5024B1B685B68019308BD0D
:10419C001802030008B5024B1B685B69019308BD4C
:1041AC001802030008B5024B1B685B6C019308BD39
:1041BC004802030008B5024B1B685B69019308BDFC
:1041CC006402030008B5024B1B681B68019308BD11
:1041DC003C02030008B5024B1B68DB68019308BD69
:1041EC003C02030008B5024B1B681B69019308BD18
:1041FC003C02030008B5024B1B685B69019308BDC8
:10420C003C02030008B5024B1B689B69019308BD77
:10421C003C02030008B5024B1B68DB69019308BD27
:10422C003C02030008B5024B1B689B6A019308BD56
:10423C003C02030008B5024B1B681B68019308BDC8
:10424C004C02030008B5024B1B685B68019308BD68
:10425C004C02030008B5024B1B681B69019308BD97
:10426C004C02030008B5024B1B685B69019308BD47
:10427C004C02030008B5024B1B689B69019308BDF7
:10428C004C02030008B5024B1B68DB69019308BDA7
:10429C004C02030008B5024B1B681B6A019308BD56
:1042AC004C02030008B5024B1B685B68019308BD08
:1042BC002002030008B5024B1B68DB6C019308BDA0
:1042CC002002030008B5024B1B685B6D019308BD0F
:1042DC002002030008B5034B1B68D3F88830019308
:1042EC0008BD00002002030008B5034B1B68D3F87F
:1042FC009430019308BD00002002030008B5024B66
:10430C001B685B68019308BD4002030008B5024BB3
:10431C001B689B68019308BD4002030008B5024B63
:10432C001B68DB68019308BD4002030008B5024B13
:10433C001B681B69019308BD4002030008B5024BC2
:10434C001B685B69019308BD4002030008B5024B72
:10435C001B689B69019308BD4002030008B5024B22
:10436C001B68DB69019308BD4002030008B5024BD2
:10437C001B681B6A019308BD4002030008B5024B81
:10438C001B681B6B019308BD4002030008B5024B70
:10439C001B685B6B019308BD4002030008B5024B20
:1043AC001B681B6C019308BD4002030008B5024B4F
:1043BC001B685B6C019308BD4002030008B5024BFF
:1043CC001B685B69019308BD4402030008B5024BEE
:1043DC001B681B6A019308BD4402030008B5024B1D
:1043EC001B68DB6B019308BD4402030008B5024B4C
:1043FC001B681B68019308BD1C02030008B5024B27
:10440C001B685B68019308BD1C02030008B5024BD6
:10441C001B689B68019308BD1C02030008B5024B86
:10442C001B685B6A019308BD1C02030008B5024BB4
:10443C001B68DB6A019308BD1C02030008B5024B24
:10444C001B681B6B019308BD1C02030008B5024BD3
:10445C001B685B6C019308BD1C02030000224068C2
:10446C001146FFF783BF002240681146FFF78EBF4D
:10447C0040680022FFF782BF4068002281F00101F2
:10448C00FFF76CBF002340681A461946FFF75EBF62
:10449C00002340681A461946FFF750BF00224068B7
:1044AC001146FFF743BF002240681146FFF72EBFAD
:1044BC00406800220221FFF731BF002340681A46F2
:1044CC00FFF71CBF024B03225A60024A1A60704766
:1044DC00CCE5032010550D00054B02221A60054B4C
:1044EC00054A9A600020186098809871FFF7DABE30
:1044FC00E0E50320D4E503200000FFFF10B50446DF
:10450C000068FFF77BFF204610BD10B5044600681D
:10451C0008B1FFF773FF0023C4E90133236010BD1A
:10452C0038B504460D4600680131FFF76FFF10B136
:10453C00C4E90005012038BD10B50368044623B159
:10454C0043688B4201D3012010BD2046FFF7E8FFE2
:10455C000028F9D0A368002BF5D122681370F2E77C
:10456C0037B50D46114601920446FFF7E5FF019A57
:10457C0028B92046FFF7C9FF204603B030BDA26022
:10458C002946206800F0B7FE2268A3680021D154A8
:10459C00F2E7002313B5C0E90033044683600373CC
:1045AC0041B10846019100F0FEFE019902462046F9
:1045BC00FFF7D6FF204602B010BD00000EB470B558
:1045CC0087B00BAD044655F8042B01922B46052100
:1045DC0004A80395FFF722FF0B4906462046FFF778
:1045EC00D8FF31462046FFF7A7FF206830B1019A6B
:1045FC0003952B46711CFFF711FFA060204607B0F6
:10460C00BDE8704003B07047B7540D0010B5036897
:10461C0004469B689847A368013BA3602BB92368A9
:10462C002046DB68BDE81040184710BD0B680360DE
:10463C0013B15A6801325A60704710B504460068CD
:10464C0028B14368013B43600BB9FFF7DFFF2046FD
:10465C0010BD0000024800230360FFF7A3BD00BF9C
:10466C00E4E50320F8B506460D468F180024BD423C
:10467C000CD0336815F8011B9B6830469847031E15
:10468C0001DB1C44F3E7002C08BF1C462046F8BD98
:10469C0013B50446084659B1019100F084FE236815
:1046AC000199DB680246204602B0BDE8104018476D
:1046BC0002B010BD03689B68184738B50D2105463C
:1046CC00FFF7F8FF0A2104462846FFF7F3FF2044C2
:1046DC0038BD38B50546FFF7DBFF04462846FFF723
:1046EC00ECFF204438BD30B58BB000238DF824305E
:1046FC00012A98BF0A2209AC0D46B1FBF2F101FB6D
:10470C00125303F0FF03092B94BF30333733DBB262
:10471C00AA4204F8013DEFD92146FFF7B9FF0BB0CF
:10472C0030BD0000014B024A1A607047E8E50320D7
:10473C0044550D00024B1A68024B1A60704700BFBB
:10474C005CE50320ECE5032010B58368044613B147
:10475C00032201469847204610BD13B50B4602466E
:10476C00D0E900016C4684E8030093E8030082E87A
:10477C00030094E8030083E8030002B010BD0000BE
:10478C00014B00229A607047F0E50320014B186042
:10479C00704700BF60E5032008B50B4B43B100F038
:1047AC00FDFB03681B699847002801DDAFF300800F
:1047BC00064B43B100F06CFC03681B69984700285A
:1047CC0001DDAFF3008008BD000000000000000018
:1047DC0008B5FFF7E1FFFFF7DDFC014B186008BDE2
:1047EC0050E703200548064A064908B5121A00F09E
:1047FC0082FD054B054A1A6008BD00BF00F403207A
:10480C0004F4032090560D0000F403201E1C279A7C
:10481C0007B5002300931A466FF07701FFF764FD8C
:10482C0003B05DF804FB000007B543880A2B08D0E1
:10483C00502B0BD1094B1B684BB103B05DF804EB4B
:10484C001847FFF7E5FF03B05DF804FB0023009366
:10485C001A466FF07701FFF747FDF4E704E60320F3
:10486C0010B512480021FFF7F1FD114B1A68114BDE
:10487C009A42114B0CBF012200221A7001D0FFF793
:10488C00B1FFFFF77FFC044600F04CFD0B4B13B15E
:10489C002046AFF3008000210848FFF79FFDBDE8DC
:1048AC00104007480021FFF715BD00BF99470D00C8
:1048BC0000F403201E1C279A00E6032000000000D1
:1048CC0035480D0070470020704710B51021044684
:1048DC0000F006FD204610BD08B5FFF7F6FF08BD39
:1048EC0030B500224FF69C74026084808D888C80D9
:1048FC000C68858004600A6030BD10B50446006801
:10490C00FFF77CFD204610BD38B5C468F4B12378A0
:10491C00022B03D104F10C00FFF7EFFF656835B1F2
:10492C002846FFF711FF1021284600F0D9FCA56896
:10493C0035B12846FFF708FF1021284600F0D0FCBF
:10494C0020461421BDE8384000F0CABC38BD73B510
:10495C000E46044656F8043B00930D4601A831461A
:10496C00FFF764FE019A009B6260236001A800239C
:10497C0001930093FFF761FE3046FFF75EFE284679
:10498C00082100F0ADFC204602B070BD826810B565
:10499C000AB900F0A7FCBDE81040C368184708B579
:1049AC00006800F11001FFF7F1FF08BD826810B537
:1049BC000AB900F097FCBDE81040C368184708B569
:1049CC00006800F11001FFF7F1FF08BD38B50023B6
:1049DC000446036010200D46FFF755FB28B1012358
:1049EC00C0E90133024B0360C5602060204638BD2E
:1049FC006C550D0038B5002383608B6804460D465A
:104A0C002BB102229847EB68E360AB68A3602046A9
:104A1C0038BD0000F0B589B004686846FFF760FF48
:104A2C004FF00203D4E84F2F002A03D1C4E8413FD2
:104A3C000029F7D125D104F10C0569462846FFF76A
:104A4C004FFFBFF35B8F01236370002004F1080359
:104A5C00BFF35B8F53E8006F43E80002002AF9D1E3
:104A6C00BFF35B8F6EB1FFF725FC78B1294630465A
:104A7C00FFF78CFF3046FFF767FE1021304600F041
:104A8C002FFC6846FFF739FF09B0F0BD314602A88C
:104A9C00FFF7B0FFE068B4F9105008B100F066FC05
:104AAC0006901020ADF81C50FFF7EDFA0546E8B162
:104ABC00002787601820FFF7E6FA044688B1014604
:104ACC00876002A8FFF749FE049BA268A360059BC0
:104ADC00049206A9E268E36004F110000592FFF766
:104AEC00FFFE084BEB60084B2C60AB6006A8FFF791
:104AFC0004FF02A8FFF728FE002229460348FFF70F
:104B0C00E1FBB7E7AB490D00414C0D00E9500D003E
:104B1C002DE9F0478AB005469DF848900C4617469B
:104B2C009846FFF74BFC07AE824638BB4FF62E7308
:104B3C00059005A93046ADF81830FFF7D1FE1420CA
:104B4C00FFF7A1FA044648B1022303700123C0E920
:104B5C0001AA437031460C30FFF7C2FE28462146AD
:104B6C0040F8044BFFF732FF3046FFF7C6FE05A8AE
:104B7C00FFF7C3FE28460AB0BDE8F0870C234FF0C0
:104B8C00000A1420CDE908AA0793FFF77CFA014626
:104B9C0028B1C0E901AA80F800A080F801A004A8FF
:104BAC000391FFF713FF224B08930820FFF76BFAD2
:104BBC00824628B1039B40F8043B04A9FFF736FD5D
:104BCC0000965FFA89F3424639462046CDF824A078
:104BDC00FFF7FCFBB8B9039B5B7803F0FF0293B9BA
:104BEC004FF69C7305A903A80592ADF81830FFF792
:104BFC0011FF05A8FFF781FE05A80999FFF7A7FE8D
:104C0C0006A8FFF71AFD039B059304A906A8FFF756
:104C1C000DFD059B069A2B606A60002306A806937F
:104C2C000593FFF70AFD04A8FFF707FDA2E700BFF5
:104C3C00054D0D00022AF8B5054607D0032A18D0F9
:104C4C00012A01D10B6803600020F8BD18200E6802
:104C5C00FFF719FA044650B13146FFF7CBFE306925
:104C6C00B6F9147008B100F081FB2061A7822C60AA
:104C7C00EAE70468002CE7D004F11000FFF73DFED2
:104C8C002046FFF761FD1821204600F029FBDBE7E9
:104C9C0038B5002383608B6804460D462BB1022285
:104CAC009847EB68E360AB68A360204638BD022AE6
:104CBC0070B5044607D0032A12D0012A01D10B6823
:104CCC000360002070BD14200E68FFF7DCF9054668
:104CDC0020B13146FFF7DCFF337C2B742560F0E705
:104CEC000468002CEDD02046FFF72EFD1421204641
:104CFC0000F0F6FAE5E70000F0B589B004460D4681
:104D0C0001A81146FFF723FEA4B124B21DB1284619
:104D1C0000F02CFB054601A803A90395ADF8104043
:104D2C00FFF778FE03A8FFF7E8FD02A8FFF785FC64
:104D3C0009B0F0BD019D0123D5E84F2F002A03D106
:104D4C00C5E8413F0029F7D1EFD12B73BFF35B8F3F
:104D5C006B702B1DBFF35B8F53E8006F43E8004271
:104D6C00002AF9D1BFF35B8F002EDED02046FFF76F
:104D7C00A1FA074660B105F10C013046FFF716FEAB
:104D8C003046FFF7E1FC1021304600F0A9FACCE7E1
:104D9C00314603A8FFF77CFF2B7B8DF81C301020CD
:104DAC00FFF771F90546D0B187601420FFF76BF956
:104DBC00044678B18760014603A8FFF7CEFC059B3B
:104DCC00A268A360069B0592E268E3609DF81C3024
:104DDC0006922374064BEB60064B2C60AB6003A869
:104DEC00FFF7B2FC002229460348FFF76BFAC7E72E
:104DFC00CB490D00BB4C0D00E9500D00704710B5B0
:104E0C001821044600F06CFA204610BDF0B5037D65
:104E1C00062B8DB00E4600F104074FF0000412D0A3
:104E2C0000F1080515F8011D0A223046FFF75BFC5E
:104E3C00AF42044419D0002CF4D02E213046FFF799
:104E4C0039FC0444EEE72F236A4639460A208DF8D4
:104E5C000040FFF7AFF9684600F0A5FA3368024648
:104E6C00DB68694630469847044620460DB0F0BDD5
:104E7C0010B5054B0446112240F8043B002100F00C
:104E8C0048FA204610BD00BF88550D000346074A5E
:104E9C0010B543F8042B01F1100251F8044B43F800
:104EAC00044B9142F9D10A781A7010BD88550D0047
:104EBC0010B59DF8084044EA032343EA024242EA53
:104ECC00016104234160037510BD13B5CB780093C9
:104EDC008B784A780978FFF7EBFF02B010BD41746C
:104EEC0070477047704708B50021007CFFF7C2F986
:104EFC0040EAE07008BD08B50121007CFFF7BAF963
:104F0C0040EAE07008BD08B5007CFFF7ABF920EA79
:104F1C00E07008BD08B5007CFFF79CF920EAE07052
:104F2C0008BD13B50446007C0191FFF79BF90028DE
:104F3C00019901DC607C20B1207CFFF7A3F920EA09
:104F4C00E07002B010BD007CFFF7A4B910B51421BD
:104F5C00044600F0C5F9204610BD000010B54FF412
:104F6C007A73044608460021C4E90113044B2360FC
:104F7C000123207463741146FFF75CF9204610BDC1
:104F8C009C550D00007C0022FFF75CB910B5142273
:104F9C000446002100F0BDF9204610BD10B50F4CA1
:104FAC0088B003A8FFF7F2FF2178BFF35B8F11F0F5
:104FBC0001010FD120460191FFF769F8019948B121
:104FCC0003AA0748FFF7CAFF2046FFF765F8054814
:104FDC0000F08BF9024808B010BD00BF08E60320B2
:104FEC000CE60320EF4E0D0070474174704770477C
:104FFC0008B5007CFFF716F920EAE07008BD08B58B
:10500C00007CFFF7EFF820EAE07008BD08B5007CE3
:10501C00FFF7F8F840EAE07008BD08B5007CFFF730
:10502C00E9F840EAE07008BD007CFFF7F3B837B54B
:10503C00457C04462DB1207C03B0BDE83040FFF721
:10504C00C9B8007C0191FFF7EDF800280199F2DC5A
:10505C00284603B030BD10B51421044600F040F9C9
:10506C00204610BD10B54FF0000C04460846114602
:10507C004FF47A72C4E901C2044A226001222074FE
:10508C0062741A46FFF79EF8204610BDCC550D00F1
:10509C0013B50D4C2178BFF35B8F11F0010110D1CA
:1050AC0020460191FEF7F3FF019950B1074B084AD6
:1050BC000848FFF7D7FF2046FEF7EEFF064800F042
:1050CC0014F9044802B010BD20E60320A8E6032022
:1050DC0024E603202CE70320FB4F0D0010B583685A
:1050EC0004460BB900F0FEF8C3689847A3681BB1DF
:1050FC00032221462046984720461021BDE8104047
:10510C0000F0EEB8002240681146FFF70FB90022FC
:10511C0040681146FFF72AB9002240681146FFF794
:10512C0035B940680022FFF729B94068002281F0A8
:10513C000101FFF713B9002340681A461946FFF71F
:10514C0005B9002340681A461946FFF7F7B8002244
:10515C0040681146FFF7DAB8406800220221FFF7D9
:10516C00DDB8002340681A46FFF7C8B8024B04228A
:10517C005A60024A1A60704740E70320FC550D0044
:10518C00002340681A46FFF7B9B840680022022194
:10519C00FFF7C4B8002240681146FFF7B7B80022E9
:1051AC0040681146FFF7C2B8002340681A461946FA
:1051BC00FFF7C4B8002340681A461946FFF7C6B873
:1051CC0040680021FFF7EAB840680021FFF7EEB80D
:1051DC004068002281F00101FFF7C0B8406800224E
:1051EC00FFF7CCB8002240681146FFF7CFB8002279
:1051FC0040681146FFF7BAB82DE9F043002495B08A
:10520C0016460D460746FFF733FE214618220EA818
:10521C00009400F07EF84023CDE90C3421466B4617
:10522C000CAA3046FEF7A6FF0446002846D10246DB
:10523C0001216868FFF77AF80221804622466868E7
:10524C00FFF774F8009E81462146002E36D00029C7
:10525C0034D17368022B03D00A2B0BD0F669F4E718
:10526C00B8F1000F04D0716938460431FFF72DFEF8
:10527C004146F3E7B9F1000F01D14946EEE77469F5
:10528C00102201A800F045F806238DF8143001AD6A
:10529C0004F108031834186859682A4603C2083305
:1052AC00A3421546F7D101A906A807ADFFF7EEFDFD
:1052BC000FCD3C1D0FC42B682370DEE70098FEF762
:1052CC0051FF384615B0BDE8F0830000024B034A8D
:1052DC001A6000225A60704748E7032038560D00C8
:1052EC00FEF7D3BE08B5FFF7A1F8002301461A4616
:1052FC00184600F061B80A44914200F1FF3300D126
:10530C00704710B511F8014B03F8014F9142F9D1D8
:10531C0010BD02440346934200D1704703F8011BB1
:10532C00F9E7000038B50D4B1D68AB6B04467BB933
:10533C001820FFF75BF80A4A0A4BA863C0E9002360
:10534C00094B83600B23838101220023C0E90423D2
:10535C00AB6B00221C615A6138BD00BF60E50320B5
:10536C000E33CDAB34126DE6ECDE0500024B01467C
:10537C00186800F003B800BF60E5032037B5044699
:10538C0008460D4600F00FF8421C114620460192CB
:10539C00FFF754F8044618B1019A2946FFF7ABFF02
:1053AC00204603B030BD034613F8012B002AFBD175
:1053BC00181A0138704700002DE9F843DFF8B8805F
:1053CC000646D8F800001F460D46914600F056F8E8
:1053DC00254B1C6834B9254C1C60254B13B11B683C
:1053EC00C4F8883063681F2B07DDD8F8000000F084
:1053FC0047F84FF0FF30BDE8F8834EB3D4F888007F
:10540C0088B91C4B23B9D8F8000000F038F8F0E745
:10541C004FF48470FEF7EAFF0028F4D00023C0E9B3
:10542C004033C4F88800636840F8239001229A4006
:10543C0000EB8301D0F800311343022EC0F8003189
:10544C00C1F8807002BFD0F804311A43C0F80421AF
:10545C006368D8F800005A1C0233626044F8235089
:10546C0000F00EF80020C6E7E0E7032054E7032025
:10547C0000000000F9430D00C4E50320704770479D
:10548C00704700001D400D0059400D0081400D007B
:10549C0085400D000000000075736572006B67009D
:1054AC003132333435363738396141007B20227440
:1054BC00797065223A20222573222C20227573657F
:1054CC00726E616D65223A20222573222C20227087
:1054DC00617373776F7264223A2022257322207DC8
:1054EC000054657374557365725369676E757000FB
:1054FC005075626C69736865640000000000000000
:10550C0000000000C7440D00BD440D00B3440D0065
:10551C00A9440D009D440D0091440D00CD510D008A
:10552C00D5510D0085440D007D440D0073440D00D4
:10553C0069440D0005520D006170700025592D2530
:10554C006D2D25645425483A254D3A2553257A006E
:10555C0061736374696D6500000000000000000059
:10556C00D1480D00D7480D0015490D00E5480D0038
:10557C00D3480D000000000000000000194E0D0083
:10558C00094E0D000B4E0D00000000000000000045
:10559C00F14E0D00594F0D002F4F0D0071460D00AF
:1055AC00214F0D00F34E0D00034F0D00534F0D0016
:1055BC00134F0D00EB4E0D0000000000000000002A
:1055CC00F54F0D0063500D003B500D0071460D0062
:1055DC000B500D0027500D0019500D0035500D00CB
:1055EC00F74F0D00FD4F0D00000000000000000003
:1055FC006F510D0065510D005B510D0011510D00E7
:10560C004F510D0043510D00CD510D00D5510D00E2
:10561C0037510D002F510D0025510D001B510D0060
:10562C0005520D0000000000000000008D510D001F
:10563C0097510D00A1510D00AB510D00B5510D004E
:10564C00C1510D00CD510D00D5510D00DD510D0096
:10565C00E9510D00F1510D00FB510D0005520D00EB
:10566C0065410D00D1440D00E5440D0061460D006F
:10567C0031470D0041470D008D470D0079510D004C
:04568C00D9520D00E2
:045690000000000016
:105694005C550D0064E503200000000000000000DC
:1056A40000000000000000000000000000000000F6
:1056B40000000000000000000000000000000000E6
:1056C40000000000000000000000000000000000D6
:1056D40000000000000000000000000000000000C6
:1056E40000000000000000000000000000000000B6
:0C56F4000000000000000000E5E70320BB
:10570000FFFFFFFF00000102030405060708090A66
:105710000B0C0D0E0F101112131415161718191A61
:085720001B1C1D1E1F202800A8
:045728007856341269
:04000003D000401CCD
:00000001FF
