:02000002D0002C
:1040000000400D00B8760D00000006000C00050110
:0840100004019A080000000001
:04401800C0720D0065
:10401C0009480A49884208B505D0094A824202D0AB
:10402C00121A03F081F80748074A0021121A03F00C
:10403C0089F8014808BD00BFB89F032014760D0015
:10404C0034A0032038A00320F1E7032070B5074EFD
:10405C00074C01F019FDA41BA4080025A54200D1B2
:10406C0070BD56F8043B98470135F7E7E8750D002D
:10407C000C760D0000F044B808B500F085F8BDE8EA
:10408C00084001F0B9BC01F0EFB801F0EDB801F057
:10409C00F3B80078B0FA80F0400970470123037040
:1040AC007047000010B50C4602F08CF801F0C5FA10
:1040BC0002F088F8214601F0CCFAA27BE37B0A21BE
:1040CC00303B303A01FB02320A4B1A60627FA37F0D
:1040DC00303A303B01FB0232074B1A6094F8313016
:1040EC0094F83220303B303A01FB0323034A13602F
:1040FC0010BD00BFC49F0320B89F0320BC9F0320AA
:10410C001FB502F05FF84FF4E13102F04FF8194B94
:10411C000121187802F0B8FA174B0121187802F037
:10412C00B3FA0121052002F0AFFA0121042002F0BC
:10413C00ABFA02F0FFFA114A01465723104800F07F
:10414C0025FB28B902F03EF80E4901F08CFAFEE787
:10415C0040F29B134FF48052CDE90132642300935B
:10416C000748022304223C2100F0CCFB05B05DF88B
:10417C0004FB00BFC09F0320C19F0320801A0600D0
:10418C0068E00320D4720D002DE9F04F2DED028B69
:10419C0091B001F0D5FBBC4AC31F126848BF00F1B7
:1041AC0011039A4200F3E680B84A12689A42C0F2B0
:1041BC00E18001F0B5FBB64C06906423236002F05D
:1041CC0001F8B449B44DDFF8E892DFF8E88201F069
:1041DC0040FA00262368F7B29F4216DA284600F010
:1041EC00A7F918B9284600F0F1F9F7E7284600F0CE
:1041FC00A5FA49F82700284600F0AEFA48F827003F
:10420C00284600F09FF90136E4E701F0DBFFA34FED
:10421C00A349A44DA44EDFF8D89201F01AFA0297E4
:10422C00A24BA34A2168A3480195009600F0CEFC4E
:10423C000597994F0121052002F037FA002104203F
:10424C0002F033FA01F06CFB069BA0EB030840462E
:10425C0002F0EEFBB8F1130F41EC180B40F3AC80FD
:10426C0000F0DAFF002800F08A80934BD9F8008028
:10427C001B68079301F054FB0A2201460CA801F0BD
:10428C0042F90C9A079B8D49009208A8424601F00E
:10429C004DF90CA801F0C6F8894B089A1B788DF8DB
:1042AC00003088493C230CA801F046FDDDF8348031
:1042BC00B8F1000F15D0D8F80430013BC8F8043021
:1042CC007BB9D8F8003040469B689847D8F808303E
:1042DC00013BC8F8083023B9D8F800304046DB68F9
:1042EC00984701F06FFF4FF00008774901F0B1F9E2
:1042FC000123CDE9008875497548424600F09CFFC2
:10430C00744B08A8C3F8008001F08CF801F05AFF38
:10431C00714901F08EF901F055FFD9F8001001F048
:10432C0081F901F04FFF6D4901F083F901F04AFF6B
:10433C00D9F8001001F076F90021052002F0B5F94A
:10434C000121042002F0B1F9654B1B684EF6602088
:10435C00584301F00BFB4FF0000801F033FFB0EEB7
:10436C00480AF0EE680A022101F066FAB8F1000F73
:10437C007FF460AF11B0BDEC028BBDE8F08FDFF8BD
:10438C0054B1584ADBF80080286802EBC803079345
:10439C0002F04EFB079B544AC3E90001434B4FEA22
:1043AC00C80A1868924402F043FB08F10103CAE9F9
:1043BC000001CBF80030A9E73D493E4A4B238A4621
:1043CC009346486E41F8040B013B506E42F8040BC7
:1043DC0013F0FF03F5D14FF04B08384600F0A8F866
:1043EC0018B9384600F0F2F8F7E7404B1B78079302
:1043FC00184602F073F9079BB0FA80F14909184688
:10440C0002F053F9384600F099F94AF8280038467A
:10441C0000F0A2F94BF82800384600F093F8059B01
:10442C0093F90030012B0BD129680A220CA801F05A
:10443C006AF80C99484601F054F80CA800F0F2FF09
:10444C0096F90030012B0CD1184B0A2219680CA8D4
:10445C0001F059F80C99184801F043F80CA800F039
:10446C00E1FF08F10108B8F1640FB6D1059B104AC1
:10447C00216810480096CDE901530C4B00F0A6FBC7
:10448C004FF0010869E700BFC49F0320B89F0320C9
:10449C003CA0032007730D0068E0032014E2032006
:1044AC0013730D0040A0032015E2032000E203204B
:1044BC0070E0032058A0032004E2032024730D00B5
:1044CC0038A0032074730D005B730D00B1400D0018
:1044DC0066730D0054A003207F730D0085730D00CF
:1044EC00BC9F0320E8A1032028C10320C19F032007
:1044FC0044A0032008B5084B084801221A7000F0AC
:10450C0015F80749074800F0D8FFBDE808400449F2
:10451C00054800F0D2BF00BF38A0032068E003209C
:10452C008D730D0044A0032004E2032070470000AB
:10453C00034B93F8300093F83130C01AC0B2704777
:10454C0018E20320064A92F8313092F83010994262
:10455C001EBF013303F0030382F83130704700BFF4
:10456C0018E2032070B50446006816460D4601F0AB
:10457C0051FF2068036831469B68984700212068EA
:10458C0001F04FFF29462068012201F040FF002571
:10459C00206803681B69984758B90120013501F060
:1045AC00E5F9CA2DF4D1206803685B699847C0B25D
:1045BC0070BDC82DF7D10020FAE701790422FFF76E
:1045CC00D1BF01790622FFF7CDBF00002DE9F743DB
:1045DC000446FFF7F6FF06462046FFF7EEFF86423D
:1045EC0000F08F80861B4FF0570120686779DFF849
:1045FC001C8148BF203601F011FF20680368072199
:10460C009B689847206801F010FF774307EB47073A
:10461C00002F77DD202FC8BF65792068C5BF05EB5B
:10462C00450520223D46B2FBF5F2C8BF55432A464C
:10463C00572101F0ECFE7F1B4FF00009002DE7DD48
:10464C0098F830308DF80790013303F0030388F8A5
:10465C003030206803685B6998478DF80600206845
:10466C0003685B6998478DF80500206803685B69EF
:10467C0098478DF80400019B98F83020C3F3110380
:10468C0048F822306379012B19D9206803685B69DB
:10469C0098478DF80600206803685B6998478DF889
:1046AC000500206803685B69984798F830308DF8EE
:1046BC000400019A0433C2F3110248F823206379F1
:1046CC00022B19D9206803685B6998478DF806009E
:1046DC00206803685B6998478DF8050020680368BB
:1046EC005B69984798F830308DF80400019A0833CC
:1046FC00C2F3110248F823206379A3EB83031D4412
:10470C009CE70026B0B203B0BDE8F08318E20320AA
:10471C0070B505460E4600F0C3FB044600F0C0FB26
:10472C00001BB04208D82846FFF750FF012804D0E0
:10473C00012001F01BF9F1E7002070BD08B5FA214A
:10474C00FFF7E6FF20B1034B93F8302053F822001B
:10475C0008BD00BF18E2032008B5FA21FFF7D8FF07
:10476C0028B1034A92F83030043352F8230008BDC4
:10477C0018E203200179FF22FFF7F4BE10B5FE22E8
:10478C0001790446FFF7EEFEA07110BD37B5044663
:10479C00084621601D46019201F00AFE019920682D
:1047AC0001F002FE25712046FFF7E4FF2046FFF7DB
:1047BC00E5FF012003B030BD70B504460068164615
:1047CC001D4601F027FE2068036831469B68984718
:1047DC002068036829469B6898472068BDE87040AC
:1047EC0001F023BE0B460C220179FFF7E5BF0B4607
:1047FC000D220179FFF7E0BF0B460E220179FFF77E
:10480C00DBBF0B4610220179FFF7D6BF10B504466B
:10481C00017900230422FFF7CFFF217920460023E2
:10482C000522FFF7C9FF217920460023BDE810407F
:10483C000622FFF7C1BF2DE9F0410D4617460A4687
:10484C00017904461E46FFF78DFE00EA0703217925
:10485C0033432A462046BDE8F041FFF7ADBF38B5DB
:10486C00BF22402309210446FFF7E5FF00F018FBA7
:10487C00054600F015FB401B63280AD82179092254
:10488C002046FFF76FFE430603D5012001F06EF8BA
:10489C00EFE738BD0B46F8220921FFF7CCBF0B46DA
:1048AC009F220A21FFF7C7BF0B46E3220A21FFF71D
:1048BC00C2BF0B46FC220A21FFF7BDBF0B461F22CD
:1048CC000821FFF7B8BF1023EF220821FFF7B3BF71
:1048DC0001391346032914D8DFE801F002060B0E48
:1048EC00F8221121FFF7A7BF1B0103F0F0038F2261
:1048FC00F7E7F8221221F5E71B0103F0F0038F22F2
:10490C00F8E770472DE9F0471546DDE90879DDF841
:10491C0028A0044688461E46FFF7A1FF012D4AD168
:10492C0000212046FFF7CAFF2046FFF7CCFF032EDD
:10493C0055D107212046FFF7ADFFBAF5805F6671B0
:10494C0052DA00212046FFF7AAFF632F59DC002121
:10495C002046FFF7A9FFB9F1750F72DC0021204644
:10496C00FFF7A7FF41462046FFF73CFF4146204694
:10497C00FFF73DFF41462046FFF73EFF41462046EC
:10498C00FFF73FFF012211462046FFF7A1FF012E42
:10499C000CD920238F2211212046FFF74CFF022E29
:1049AC0004D0032211462046FFF792FF2046BDE8B3
:1049BC00F047FFF72BBF022D01D12021B1E7042DC9
:1049CC0001D14021ADE7082D01D16021A9E7102DBF
:1049DC0001D18021A5E7202DF3D1A021A1E7022E42
:1049EC000CBF03210221A5E7BAF5005F01DA2021F3
:1049FC00A8E7BAF5804F01DA4021A3E7A1D16021E5
:104A0C00A0E7C72F01DC0421A2E7B7F5C87F01DAC4
:104A1C0008219DE7B7F5487F01DA0C2198E7B7F537
:104A2C007A7F01DA102193E7B7F5C86F01DA142108
:104A3C008EE7B7F5486F01DA182189E787D11C2179
:104A4C0086E7B9F1D60F01DC012188E7B9F5CD7FF6
:104A5C0001DC022183E740F29B1399457FF47EAF82
:104A6C0003217CE72DE9F04100240C6003F1FF38B1
:104A7C000124A04527DD069D52F824C0AC454FEA21
:104A8C00840604F101051CDD164456F8046CB4458B
:104A9C0017DD2E469E4252F82670A6EB040E3546C4
:104AAC0003D0BC4506F10106F4D0BC4509DD0E6807
:104ABC000E2E06DC751C0D600EF1010540F826402B
:104ACC0025442C46D5E7BDE8F081F0B5012304461A
:104ADC008B420FDA54F8046F1A46254655F8047CBD
:104AEC00B74203DD013A45F80479F7D140F822606A
:104AFC000133EDE7F0BD2DE9F043012390460D465F
:104B0C00434516DA55F8046F1C4600EB8609AC4693
:104B1C00D9F800205CF8047C964650F8272096457E
:104B2C0003DD013C4CF80479F2D141F824600133E7
:104B3C00E6E7BDE8F0832DE9F04104461E46104639
:104B4C000D460A682146FFF7D6FF271F4FF0FF32AC
:104B5C00C6F1000829689142944620DD01321046C6
:104B6C002A60814201D10437F4E7BCF1FF3F18BF42
:104B7C00D7F800E054F8203008BFE646A3EB0E034C
:104B8C00B34201DC984508DDD5F800E00EF10103D5
:104B9C002B6054F8203044F82E300130E1E72046E9
:104BAC00BDE8F041FFF791BFF7B5089F00970C46A1
:104BBC00FFF758FF099BFFF7BEFF22680A9B9A423A
:104BCC00D4BF2260236003B0F0BD00002DE9F04F8C
:104BDC00904600229B469FB005460C461346A242C7
:104BEC0004DA55F8221001320B44F8E7DFF8309262
:104BFC00B3FBF4F348460022A24206DA55F8221021
:104C0C00591A40F8041B0132F6E7854A0021136853
:104C1C0052F8040F03445068034490681B1848BFB3
:104C2C00033301319B10602942F8043CEFD100237F
:104C3C007B491A4651F8040B0132642A0344F9D11A
:104C4C0040F6B7318B424BDD93FBF2F33C2BA8BF04
:104C5C003C230FAE00223146924601320F2A41F816
:104C6C0004ABFAD102920422CDE9003209A96423E3
:104C7C006B4A3046FFF798FF099B012B32DDB64695
:104C8C00002201207146DEF804C009680130ACEB4B
:104C9C00010C83420EF1040E6244F3D1591E92FBB7
:104CAC00F1F240F2DC5191FBF2F229990A602A9957
:104CBC0001220A705B480022A2421ADB0022CDE9D5
:104CCC000A22CDE90C220E920FA893421DDD50F85A
:104CDC002210642917DD544BCBF80030002394E0EC
:104CEC001E23B6E72999504A0A602A9A82F800A036
:104CFC00E0E755F8221049F8041B58F8221040F848
:104D0C00041B0132D8E70132DFE70021013B4448A4
:104D1C00DFF810C107938846079B434559DDD6F849
:104D2C0004E056F8043BAEEB0309B9F1030F08F1AC
:104D3C000108F1DD4FF07F421D460592AE4510DDB6
:104D4C0050F825A0059C9245C8BF52465CF825A09A
:104D5C00C8BF0695A245C4BF2F46CDF814A0013597
:104D6C00ECE750F82E4050F82350A4EB050A069DB2
:104D7C00059CED1A05FB0AF595FBF9FA50F8235042
:104D8C00AA4450F82750A5EB0A0A04FB0AF4E411D4
:104D9C00002CC1DD0429BFDC5CF823505CF82EE04C
:104DAC00FB1AAEEB050E03FB0EF393FBF9F32B444E
:104DBC005CF82750ED1A6A43D211ADD01EAB03EB51
:104DCC00810E64235A43013192FBF4F44EF8504C9B
:104DDC00A2E70AA8FFF779FE4A1003294FEA8203DB
:104DEC0018DD1EA901EB820151F8543C51F8502CEE
:104DFC00134403EBD3735B10DA1EB42A3FF66BAF8C
:104E0C000A4AD35CCBF800300123289A13701FB0E8
:104E1C00BDE8F08F1EAA134453F8503CECE700BFDA
:104E2C004CE20320DCE3032019FCFFFF92730D001E
:104E3C0008B5024B1B689B68019308BD6802030010
:104E4C0008B5024B1B68DB68019308BD68020300C0
:104E5C0008B5024B1B689B68019308BD2C0203002C
:104E6C0008B5024B1B68DB68019308BD2C020300DC
:104E7C0008B5024B1B681B69019308BD2C0203008B
:104E8C0008B5024B1B685B69019308BD2C0203003B
:104E9C0008B5024B1B685B68019308BD1802030040
:104EAC0008B5024B1B685B69019308BD180203002F
:104EBC0008B5024B1B689B6D019308BD18020300DB
:104ECC0008B5024B1B685B6E019308BD180203000A
:104EDC0008B5024B1B685B6C019308BD48020300CC
:104EEC0008B5024B1B685B69019308BD64020300A3
:104EFC0008B5024B1B681B68019308BD3C020300FC
:104F0C0008B5024B1B68DB68019308BD3C0203002B
:104F1C0008B5024B1B681B69019308BD3C020300DA
:104F2C0008B5024B1B685B69019308BD3C0203008A
:104F3C0008B5024B1B689B69019308BD3C0203003A
:104F4C0008B5024B1B68DB69019308BD3C020300EA
:104F5C0008B5024B1B681B6A019308BD3C02030099
:104F6C0008B5024B1B689B6A019308BD3C02030009
:104F7C0008B5024B1B681B68019308BD280203008F
:104F8C0008B5024B1B68DB68019308BD28020300BF
:104F9C0008B5024B1B689B69019308BD28020300EE
:104FAC0008B5024B1B68DB69019308BD280203009E
:104FBC0008B5024B1B681B6A019308BD280203004D
:104FCC0008B5024B1B685B6A019308BD28020300FD
:104FDC0008B5024B1B689B6A019308BD28020300AD
:104FEC0008B5024B1B68DB6A019308BD280203005D
:104FFC0008B5024B1B681B6B019308BD280203000C
:10500C0008B5024B1B685B6B019308BD28020300BB
:10501C0008B5024B1B681B6C019308BD28020300EA
:10502C0008B5024B1B681B6D019308BD28020300D9
:10503C0008B5024B1B68DB69019308BD3002030005
:10504C0008B5024B1B681B6A019308BD30020300B4
:10505C0008B5024B1B681B68019308BD4C0203008A
:10506C0008B5024B1B685B68019308BD4C0203003A
:10507C0008B5024B1B681B69019308BD4C02030069
:10508C0008B5024B1B685B69019308BD4C02030019
:10509C0008B5024B1B689B69019308BD4C020300C9
:1050AC0008B5024B1B68DB69019308BD4C02030079
:1050BC0008B5024B1B681B6A019308BD4C02030028
:1050CC0008B5024B1B681B68019308BD2002030046
:1050DC0008B5024B1B685B68019308BD20020300F6
:1050EC0008B5024B1B685B69019308BD20020300E5
:1050FC0008B5024B1B68DB6C019308BD2002030052
:10510C0008B5024B1B685B6D019308BD20020300C0
:10511C0008B5024B1B689B6D019308BD2002030070
:10512C0008B5034B1B68D3F88830019308BD000009
:10513C002002030008B5034B1B68D3F8943001938D
:10514C0008BD00002002030008B5024B1B685B6819
:10515C00019308BD4002030008B5024B1B689B6815
:10516C00019308BD4002030008B5024B1B68DB68C5
:10517C00019308BD4002030008B5024B1B681B6974
:10518C00019308BD4002030008B5024B1B685B6924
:10519C00019308BD4002030008B5024B1B689B69D4
:1051AC00019308BD4002030008B5024B1B68DB6984
:1051BC00019308BD4002030008B5024B1B681B6A33
:1051CC00019308BD4002030008B5024B1B681B6B22
:1051DC00019308BD4002030008B5024B1B685B6BD2
:1051EC00019308BD4002030008B5024B1B681B6C01
:1051FC00019308BD4002030008B5024B1B685B6CB1
:10520C00019308BD4002030008B5024B1B689B6864
:10521C00019308BD4402030008B5024B1B685B698F
:10522C00019308BD4402030008B5024B1B681B6ABE
:10523C00019308BD4402030008B5024B1B685B6A6E
:10524C00019308BD4402030008B5024B1B681B6B9D
:10525C00019308BD4402030008B5024B1B68DB6BCD
:10526C00019308BD4402030008B5024B1B681B6880
:10527C00019308BD1C02030008B5024B1B685B6858
:10528C00019308BD1C02030008B5024B1B689B6808
:10529C00019308BD1C02030008B5024B1B685B6A36
:1052AC00019308BD1C02030008B5024B1B68DB6AA6
:1052BC00019308BD1C02030008B5024B1B681B6B55
:1052CC00019308BD1C02030008B5024B1B685B6C04
:1052DC00019308BD1C02030008B5024B1B68DB6C74
:1052EC00019308BD1C020300002240681146FFF721
:1052FC0063BF002240681146FFF76EBF4068002272
:10530C00FFF762BF4068002281F00101FFF74CBF3C
:10531C00002340681A461946FFF73EBF0023406839
:10532C001A461946FFF730BF002240681146FFF7B6
:10533C0023BF002240681146FFF70EBF40680022D1
:10534C000221FFF711BF002340681A46FFF7FCBE8D
:10535C00024B03225A60024A1A6070476CE5032024
:10536C0054740D0010B5044608462170FFF760FE1A
:10537C0000236360204610BD054B02221A60054BCA
:10538C00054A9A600020186098809871FFF7A0BEBB
:10539C0080E5032074E503200000FFFF2DE9F041B8
:1053AC00931E8CB0222B4FF000030D4614468DF843
:1053BC002C3027D900282ADA2E462D2306F8013B5B
:1053CC0040420A240DF12B074FF0010822460146FA
:1053DC0001A801F095FE029B0198092BCCBF372246
:1053EC00302252FA83F307F8013908F1010800283A
:1053FC00ECD14246791C304601F096FE28460CB0A2
:10540C00BDE8F0810A2AD5D018B12E46DAE70A2475
:10541C00FAE730238DF82B302E460DF12A074FF08A
:10542C000208E6E710B504460068FFF725FF2046A2
:10543C0010BD10B50446006808B1FFF71DFF00232E
:10544C00C4E90133236010BD38B504460D4600682D
:10545C000131FFF719FF10B1C4E90005012038BD77
:10546C0010B50368044623B143688B4201D3012075
:10547C0010BD2046FFF7E8FF0028F9D0A368002BE9
:10548C00F5D122681370F2E737B50D46114601923B
:10549C000446FFF7E5FF019A28B92046FFF7C9FF3C
:1054AC00204603B030BDA2602946206801F03CFEC6
:1054BC002268A3680021D154F2E7002313B5C0E998
:1054CC00003304468360037341B10846019101F037
:1054DC0082FE019902462046FFF7D6FF204602B015
:1054EC0010BD13B5044659B10846019101F073FE85
:1054FC00019902462046FFF7C7FF204602B010BDB7
:10550C00FFF797FFF9E710B504468AB00023C4E90A
:10551C000033A3602373084601A9FFF73FFF01A9DD
:10552C002046FFF7DEFF20460AB010BD0EB470B562
:10553C0087B00BAD044655F8042B01922B46052180
:10554C0004A80395FFF7A8FE0B4906462046FFF773
:10555C00B4FF31462046FFF783FF206830B1019A33
:10556C0003952B46711CFFF797FEA060204607B0F1
:10557C00BDE8704003B0704706730D0010B50368AA
:10558C0004469B689847A368013BA3602BB923682A
:10559C002046DB68BDE81040184710BD0B6803605F
:1055AC0013B15A6801325A60704710B5044600684E
:1055BC0028B14368013B43600BB9FFF7DFFF20467E
:1055CC0010BD0000024800230360FFF781BC00BF40
:1055DC0084E50320F8B506460D468F180024BD421D
:1055EC000CD0336815F8011B9B6830469847031E96
:1055FC0001DB1C44F3E7002C08BF1C462046F8BD19
:10560C0013B50446084659B1019101F0E4FD236835
:10561C000199DB680246204602B0BDE810401847ED
:10562C0002B010BD08B5FFF7EBFF08BD03689B681F
:10563C00184708B5FFF7E4FF08BD38B50D2105463E
:10564C00FFF7F4FF0A2104462846FFF7EFFF20443A
:10565C0038BD38B50546FFF7D3FF04462846FFF79B
:10566C00ECFF204438BDFFF7F4BF30B58BB00023FE
:10567C008DF82430012A98BF0A2209AC0D46B1FBE3
:10568C00F2F101FB125303F0FF03092B94BF3033EB
:10569C003733DBB2AA4204F8013DEFD92146FFF7BC
:1056AC00AFFF0BB030BD00002DE9F74F55EC104BA0
:1056BC0006460F4610EE102A10EE100A2B4629460D
:1056CC0001F0BAFC40B153493046FFF799FF8246CE
:1056DC00504603B0BDE8F08F25F000494E4B4FF01B
:1056EC00FF322046494601F0A7FC48B94A4B4FF01F
:1056FC00FF322046494601F081FC08B94749E3E7EF
:10570C00474B4FF060422046294601F08BFC08B114
:10571C004449D9E7444B4FF060422046294601F0FA
:10572C0063FC0028F4D1002200232046294601F016
:10573C005BFCD0B12D213046FFF778FF05F100431B
:10574C0082461D463949DFF8EC904FF0000B0020E3
:10575C004FF000085FFA8BF39F4208D942464B4644
:10576C0001F0FAFA0BF1010BF4E78246EAE7224664
:10577C002B4601F011F80D46044601F09BFC8046C7
:10578C0001F046F902460B462046294601F002F884
:10579C000A2204460D4630464146FFF766FF824416
:1057AC0027B123493046FFF72BFF8244DFF8849062
:1057BC004FF00008013FFFB2FF2F89D042464B4605
:1057CC002046294601F09EF904460D4601F04AFC9C
:1057DC00B0F1000B1ADA2D213046FFF727FFCBF181
:1057EC00000103460A2230460193FFF73EFF019B5E
:1057FC0018448244584601F01BF902460B462046D9
:10580C00294600F0C7FF04460D46D3E7594600234E
:10581C00E8E700BF88740D00FFFFEF7F8C740D006C
:10582C00FFFFEF4190740D00FFFFEFC10000E03F60
:10583C0005730D000000244038B5C9B20546FFF7CA
:10584C0033FF04462846FFF7F8FE204438BD00001D
:10585C00014B024A1A60704788E5032094740D00CE
:10586C002DE9F041154ADFF86080D2E90032C0180A
:10587C0042EB0101124AD2E90032C61841EB020791
:10588C00D8E90023BB4208BFB2428CB013D003A9A5
:10589C006846CDE90067FFF71FFD089B094D03F231
:1058AC006C7303AC08930FCC0FC50FCC0FC5C8E9B4
:1058BC00006723682B600CB0BDE8F081C0E50320C5
:1058CC00B8E5032090E50320C8E5032008B50020C7
:1058DC00FFF7BAFC28B1FFF79FFC80F00100C0B2C3
:1058EC0008BD0120FCE710B50020FFF7E1FA0446E3
:1058FC00A0B9FFF7E5FB012810D12046FFF708FC03
:10590C0060B9FFF7E3FF10B9FFF77EFCF9E7FFF78B
:10591C00DDFFBDE810400020FFF7CABA204610BDDD
:10592C001FB5FFF7E0FF10220021684601F00AFCCA
:10593C0000216846FFF7C4FA009805B05DF804FB37
:10594C0008B5FFF7EDFFC117FFF78AFF014B986809
:10595C0008BD00BF90E50320024B1A68024B1A6089
:10596C00704700BFC89F03208CE503200021FFF780
:10597C00B7BB10B58368044613B1032201469847A0
:10598C00204610BD13B50B460246D0E900016C460B
:10599C0084E8030093E8030082E8030094E8030022
:1059AC0083E8030002B010BD014B00229A607047DF
:1059BC00D0E50320014B1860704700BFCC9F03203B
:1059CC0008B50B4B43B100F0FDFB03681B6998470E
:1059DC00002801DDAFF30080064B43B100F06CFCF6
:1059EC0003681B699847002801DDAFF3008008BDF0
:1059FC00000000000000000008B5FFF7E1FFFFF712
:105A0C004FFA014B186008BD3CE703200548064AD5
:105A1C00064908B5121A01F087FB054B054A1A60B6
:105A2C0008BD00BF00F4032004F4032010760D0021
:105A3C0000F403201E1C279A07B5002300931A4676
:105A4C006FF07701FFF776FB03B05DF804FB000005
:105A5C0007B543880A2B08D0502B0BD1094B1B6878
:105A6C004BB103B05DF804EB1847FFF7E5FF03B04B
:105A7C005DF804FB002300931A466FF07701FFF7E3
:105A8C0059FBF4E7E4E5032010B512480021FFF7B9
:105A9C001BFC114B1A68114B9A42114B0CBF012283
:105AAC0000221A7001D0FFF7B1FFFFF7F1F904469D
:105ABC0001F050FB0B4B13B12046AFF300800021DB
:105ACC000848FFF7C9FBBDE8104007480021FFF765
:105ADC0027BB00BFC1590D0000F403201E1C279AE0
:105AEC00E0E50320000000005D5A0D007047002027
:105AFC00704710B51021044600F040FE204610BD42
:105B0C0008B5FFF7F6FF08BD30B500224FF69C74C0
:105B1C00026084808D888C800C68858004600A60AB
:105B2C0030BD10B504460068FFF7A6FB204610BD3B
:105B3C0038B5C468F4B12378022B03D104F10C00FE
:105B4C00FFF7EFFF656835B12846FFF712FF10210C
:105B5C00284600F013FEA56835B12846FFF709FF6B
:105B6C001021284600F00AFE20461421BDE83840DA
:105B7C0000F004BE38BD73B50E46044656F8043B1F
:105B8C0000930D4601A83146FFF708FD019A009BD2
:105B9C006260236001A8002301930093FFF705FDC9
:105BAC003046FFF702FD2846082100F0E7FD2046AD
:105BBC0002B070BD826810B50AB900F0E3FDBDE813
:105BCC001040C368184708B5006800F11001FFF7D2
:105BDC00F1FF08BD826810B50AB900F0D3FDBDE82D
:105BEC001040C368184708B5006800F11001FFF7B2
:105BFC00F1FF08BD38B500230446036010200D46A4
:105C0C00FEF741FA28B10123C0E90133024B0360CE
:105C1C00C5602060204638BDBC740D0038B500232B
:105C2C0083608B6804460D462BB102229847EB68C3
:105C3C00E360AB68A360204638BD0000F0B589B0C6
:105C4C0004686846FFF760FF4FF00203D4E84F2F5B
:105C5C00002A03D1C4E8413F0029F7D125D104F132
:105C6C000C0569462846FFF74FFFBFF35B8F0123F6
:105C7C006370002004F10803BFF35B8F53E8006FDF
:105C8C0043E80002002AF9D1BFF35B8F6EB1FFF736
:105C9C002FFA78B129463046FFF78CFF3046FFF7D4
:105CAC0068FE1021304600F069FD6846FFF739FFA9
:105CBC0009B0F0BD314602A8FFF7B0FFE068B4F9B7
:105CCC00105008B101F06AFA06901020ADF81C5083
:105CDC00FEF7D9F90546E8B1002787601820FEF7D2
:105CEC00D2F9044688B10146876002A8FFF74AFE44
:105CFC00049BA268A360059B049206A9E268E3607A
:105D0C0004F110000592FFF7FFFE084BEB60084B07
:105D1C002C60AB6006A8FFF704FF02A8FFF729FE72
:105D2C00002229460348FFF7EBF9B7E7D35B0D00D8
:105D3C00695E0D0011630D002DE9F0478AB0054630
:105D4C009DF848900C4617469846FFF765FA07AE43
:105D5C00824638BB4FF62E73059005A93046ADF838
:105D6C001830FFF7D1FE1420FEF78DF9044648B128
:105D7C00022303700123C0E901AA437031460C30A1
:105D8C00FFF7C2FE2846214640F8044BFFF732FFCE
:105D9C003046FFF7C6FE05A8FFF7C3FE28460AB03B
:105DAC00BDE8F0870C234FF0000A1420CDE908AAB7
:105DBC000793FEF768F9014628B1C0E901AA80F8FB
:105DCC0000A080F801A004A80391FFF713FF224B59
:105DDC0008930820FEF757F9824628B1039B40F838
:105DEC00043B04A9FFF7DAFB00965FFA89F34246FD
:105DFC0039462046CDF824A0FFF716FAB8B9039B14
:105E0C005B7803F0FF0293B94FF69C7305A903A8C6
:105E1C000592ADF81830FFF711FF05A8FFF781FECA
:105E2C0005A80999FFF7A7FE06A8FFF7BEFB039B81
:105E3C00059304A906A8FFF7B1FB059B069A2B60F6
:105E4C006A60002306A806930593FFF7AEFB04A82F
:105E5C00FFF7ABFBA2E700BF2D5F0D00022AF8B5E0
:105E6C00054607D0032A18D0012A01D10B6803601C
:105E7C000020F8BD18200E68FEF705F9044650B155
:105E8C003146FFF7CBFE3069B6F9147008B101F05A
:105E9C0085F92061A7822C60EAE70468002CE7D022
:105EAC0004F11000FFF73DFE2046FFF762FD1821BC
:105EBC00204600F063FCDBE738B5002383608B6879
:105ECC0004460D462BB102229847EB68E360AB68A1
:105EDC00A360204638BD022A70B5044607D0032AB9
:105EEC0012D0012A01D10B680360002070BD142070
:105EFC000E68FEF7C8F8054620B13146FFF7DCFF07
:105F0C00337C2B742560F0E70468002CEDD0204620
:105F1C00FFF72FFD1421204600F030FCE5E70000D0
:105F2C00F0B589B004460D4601A81146FFF723FED3
:105F3C00A4B124B21DB1284601F030F9054601A8E0
:105F4C0003A90395ADF81040FFF778FE03A8FFF7FF
:105F5C00E8FD02A8FFF729FB09B0F0BD019D012364
:105F6C00D5E84F2F002A03D1C5E8413F0029F7D1CE
:105F7C00EFD12B73BFF35B8F6B702B1DBFF35B8F5C
:105F8C0053E8006F43E80042002AF9D1BFF35B8F5E
:105F9C00002EDED02046FFF7ABF8074660B105F1C6
:105FAC000C013046FFF716FE3046FFF7E2FC1021DD
:105FBC00304600F0E3FBCCE7314603A8FFF77CFF4B
:105FCC002B7B8DF81C301020FEF75DF80546D0B108
:105FDC0087601420FEF757F8044678B187600146B5
:105FEC0003A8FFF7CFFC059BA268A360069B059254
:105FFC00E268E3609DF81C3006922374064BEB605C
:10600C00064B2C60AB6003A8FFF7B3FC00222946BB
:10601C000348FFF775F8C7E7F35B0D00E35E0D006F
:10602C0011630D00704710B51821044600F0A6FB53
:10603C00204610BDF0B5037D062B8DB00E4600F149
:10604C0004074FF0000412D000F1080515F8011DEB
:10605C000A223046FFF709FBAF42044419D0002C4A
:10606C00F4D02E213046FFF7E1FA0444EEE72F235B
:10607C006A4639460A208DF80040FEF731FF684623
:10608C0001F0A9F833680246DB6869463046984748
:10609C00044620460DB0F0BD10B5054B0446112248
:1060AC0040F8043B002101F04DF8204610BD00BF24
:1060BC00D8740D000346074A10B543F8042B01F1C0
:1060CC00100251F8044B43F8044B9142F9D10A7871
:1060DC001A7010BDD8740D0010B59DF8084044EA34
:1060EC00032343EA024242EA01610423416003753F
:1060FC0010BD13B5CB7800938B784A780978FFF7ED
:10610C00EBFF02B010BD417470477047704708B583
:10611C000021007CFEF7BCFF40EAE07008BD08B52A
:10612C000121007CFEF7B4FF40EAE07008BD08B521
:10613C00007CFEF7A5FF20EAE07008BD08B5007CE6
:10614C00FEF796FF20EAE07008BD13B50446007C0C
:10615C000191FEF795FF0028019901DC607C20B1CC
:10616C00207CFEF79DFF20EAE07002B010BD007CA1
:10617C00FEF79EBF10B51421044600F0FFFA20462E
:10618C0010BD000010B54FF47A7304460846002188
:10619C00C4E90113044B236001232074637411467A
:1061AC00FEF756FF204610BDEC740D00007C00225B
:1061BC00FEF756BF10B514220446002100F0C2FFB2
:1061CC00204610BD10B50F4C88B003A8FFF7F2FFA6
:1061DC002178BFF35B8F11F001010FD120460191A3
:1061EC00FDF757FF019948B103AA0748FFF7CAFF0B
:1061FC002046FDF753FF054800F07CFF024808B02D
:10620C0010BD00BFE8E50320ECE5032017610D008D
:10621C00704741747047704708B5007CFEF7A0FECC
:10622C0020EAE07008BD08B5007CFEF771FE20EA9C
:10623C00E07008BD08B5007CFEF77AFE40EAE0701D
:10624C0008BD08B5007CFEF76BFE40EAE07008BDA7
:10625C00007CFEF775BE37B5457C04462DB1207C1D
:10626C0003B0BDE83040FEF74BBE007C0191FEF759
:10627C0077FE00280199F2DC284603B030BD10B53A
:10628C001421044600F07AFA204610BD10B54FF0E8
:10629C00000C0446084611464FF47A72C4E901C258
:1062AC00044A22600122207462741A46FEF720FE12
:1062BC00204610BD1C750D0013B50D4C2178BFF395
:1062CC005B8F11F0010110D120460191FDF7E1FE29
:1062DC00019950B1074B084A0848FFF7D7FF2046F1
:1062EC00FDF7DCFE064800F005FF044802B010BDC7
:1062FC0000E6032088E6032004E603200CE70320D5
:10630C0023620D0010B5836804460BB900F03AFA0D
:10631C00C3689847A3681BB10322214620469847BF
:10632C0020461021BDE8104000F028BA7047F8B59F
:10633C00064615460C468F18BC4206D0336814F836
:10634C00011B9B6830469847F6E72846F8BD007C51
:10635C000022FEF72DBE007C0021FEF731BE007C32
:10636C000021FEF735BE007C0021FEF739BE007C13
:10637C000021FEF73DBE10B51421044600F0FEF9D5
:10638C00204610BD10B54FF47A7304460846002120
:10639C00C4E90113034B236020741146FEF738FE49
:1063AC00204610BD4C750D00007C0022FEF7E0BDB0
:1063BC000023007C1A461946FEF7E2BD7FB5002289
:1063CC001423CDE90122ADF804300B788DF8083098
:1063DC004B680393CB680493007C0B7A059301A95B
:1063EC00FEF71EFE07B05DF804FB1FB5003B8DF8F1
:1063FC0000104FF06401039118BF0123694601920C
:10640C008DF80830FFF7DAFF05B05DF804FB0123C7
:10641C00FFF7EBBF007C0022FEF7BABDC9B2FFF755
:10642C00F9BF007C0022FEF7BBBD0121FFF7F9BFCD
:10643C00002240681146FEF79FBE002240681146BC
:10644C00FEF7BABE002240681146FEF7C5BE406892
:10645C000022FEF7B9BE4068002281F00101FEF770
:10646C00A3BE002340681A461946FEF795BE0023CA
:10647C0040681A461946FEF787BE0022406811464E
:10648C00FEF76ABE406800220221FEF76DBE0023B3
:10649C0040681A46FEF758BE024B04225A60024A64
:1064AC001A60704720E7032074750D0000234068C4
:1064BC001A46FEF749BE406800220221FEF754BE80
:1064CC00002240681146FEF747BE00224068114684
:1064DC00FEF752BE002340681A461946FEF754BE1A
:1064EC00002340681A461946FEF756BE4068002144
:1064FC00FEF77ABE40680021FEF77EBE406800229F
:10650C0081F00101FEF750BE40680022FEF75CBE30
:10651C00002240681146FEF75FBE0022406811461B
:10652C00FEF74ABE2DE9F043002495B016460D4601
:10653C000746FFF7B1FD214618220EA8009400F083
:10654C0001FE4023CDE90C3421466B460CAA3046A3
:10655C00FEF776FC0446002846D102460121686805
:10656C00FEF70AFE0221804622466868FEF704FE0A
:10657C00009E81462146002E36D0002934D1736806
:10658C00022B03D00A2B0BD0F669F4E7B8F1000FFD
:10659C0004D0716938460431FFF7ABFD4146F3E78F
:1065AC00B9F1000F01D14946EEE77469102201A838
:1065BC0000F0C8FD06238DF8143001AD04F108037A
:1065CC001834186859682A4603C20833A342154682
:1065DC00F7D101A906A807ADFFF76CFD0FCD3C1D47
:1065EC000FC42B682370DEE70098FEF721FC3846B9
:1065FC0015B0BDE8F0830000024B034A1A6000227C
:10660C005A60704728E70320B0750D00232813B596
:10661C0002D9002002B010BDA0F10B03022B1AD836
:10662C00174C2178BFF35B8F11F001010BD1204681
:10663C000191FDF72EFD019928B11248FEF792FE4B
:10664C002046FDF72BFD0F4B1878FEF7F9FC0028C0
:10665C00DFD10120DEE7012809D800F06BF800211A
:10666C00007CFEF7CDFC80F00100C0B2D2E7093807
:10667C000128EED8FFF720FE007CFEF769FCF2E75C
:10668C0030E7032034E70320232838B504460D46B1
:10669C000AD8FF2908D0FFF7B9FF28B129462046B0
:1066AC00BDE83840FEF7D4BB38BD38B504460D46BE
:1066BC00FEF7D6FBFF2810D0062804D84D2323FA6A
:1066CC0000F0C30709D42046FFF7A0FF28B12946E4
:1066DC002046BDE83840FEF7CBBB38BD10B50446AC
:1066EC00FEF7BEFB031FDBB2012B08D92046FFF7D8
:1066FC008DFF20B12046BDE81040FEF7C1BB002045
:10670C0010BD704738B50023202543801423044660
:10671C000380856005610649284600F031F804497C
:10672C006060284600F02CF8E060204638BD00BFC1
:10673C00E4750D0030B50E4D2978BFF35B8F11F069
:10674C00010487B011D12846FDF7A3FC68B101A85C
:10675C00FFF7D8FF01AA21460648FFF713FE28468B
:10676C00FDF79CFC044800F0C5FC024807B030BDA6
:10677C0040E7032044E703200F670D00FDF787BCBB
:10678C00FDF783BC08B5FEF78FFD000081F00041DA
:10679C0002E000BF83F0004330B54FEA41044FEAFA
:1067AC00430594EA050F08BF90EA020F1FBF54EA95
:1067BC00000C55EA020C7FEA645C7FEA655C00F031
:1067CC00E2804FEA5454D4EB5555B8BF6D420CDD02
:1067DC002C4480EA020281EA030382EA000083EA85
:1067EC00010180EA020281EA0303362D88BF30BD25
:1067FC0011F0004F4FEA01314FF4801C4CEA11317B
:10680C0002D0404261EB410113F0004F4FEA0333D9
:10681C004CEA133302D0524263EB430394EA050F64
:10682C0000F0A780A4F10104D5F1200E0DDB02FAD3
:10683C000EFC22FA05F2801841F1000103FA0EF267
:10684C00801843FA05F359410EE0A5F120050EF12D
:10685C00200E012A03FA0EFC28BF4CF0020C43FA5E
:10686C0005F3C01851EBE37101F0004507D54FF06B
:10687C00000EDCF1000C7EEB00006EEB0101B1F5BB
:10688C00801F1BD3B1F5001F0CD349085FEA300001
:10689C004FEA3C0C04F101044FEA445212F5800F0C
:1068AC0080F09A80BCF1004F08BF5FEA500C50F1A9
:1068BC00000041EB045141EA050130BD5FEA4C0C8C
:1068CC00404141EB0101013C28BFB1F5801FE9D2E9
:1068DC0091F0000F04BF01460020B1FA81F308BF0C
:1068EC002033A3F10B03B3F120020CDA0C3208DDD8
:1068FC0002F1140CC2F10C0201FA0CF021FA02F1B3
:10690C000CE002F11402D8BFC2F1200C01FA02F122
:10691C0020FA0CFCDCBF41EA0C019040E41AA2BF47
:10692C0001EB0451294330BD6FEA04041F3C1CDA0F
:10693C000C340EDC04F11404C4F1200220FA04F02F
:10694C0001FA02F340EA030021FA04F345EA0301D9
:10695C0030BDC4F10C04C4F1200220FA02F001FA9B
:10696C0004F340EA0300294630BD21FA04F029461D
:10697C0030BD94F0000F83F4801306BF81F48011B6
:10698C000134013D4EE77FEA645C18BF7FEA655C29
:10699C0029D094EA050F08BF90EA020F05D054EAFB
:1069AC00000C04BF1946104630BD91EA030F1EBF00
:1069BC000021002030BD5FEA545C05D14000494104
:1069CC0028BF41F0004130BD14F580043CBF01F5F7
:1069DC00801130BD01F0004545F0FE4141F47001DD
:1069EC004FF0000030BD7FEA645C1ABF19461046B8
:1069FC007FEA655C1CBF0B46024650EA013406BFB9
:106A0C0052EA033591EA030F41F4002130BD00BF77
:106A1C0090F0000F04BF0021704730B54FF4806434
:106A2C0004F132044FF000054FF0000150E700BFB5
:106A3C0090F0000F04BF0021704730B54FF4806414
:106A4C0004F1320410F0004548BF40424FF0000101
:106A5C003EE700BF42004FEAE2014FEA31014FEA44
:106A6C0002701FBF12F07F4393F07F4F81F0605193
:106A7C00704732F07F4208BF704793F07F4F04BFDE
:106A8C0041F40021704730B54FF4607401F00045BB
:106A9C0021F000411CE700BF50EA010208BF70471B
:106AAC0030B54FF000050AE050EA010208BF70470C
:106ABC0030B511F0004502D5404261EB41014FF475
:106ACC00806404F132045FEA915C3FF4D8AE4FF07D
:106ADC0003025FEADC0C18BF03325FEADC0C18BF60
:106AEC00033202EBDC02C2F1200300FA03FC20FAB1
:106AFC0002F001FA03FE40EA0E0021FA02F11444FE
:106B0C00BDE600BF70B54FF0FF0C4CF4E06C1CEA16
:106B1C0011541DBF1CEA135594EA0C0F95EA0C0F87
:106B2C0000F0DEF82C4481EA030621EA4C5123EAFA
:106B3C004C5350EA013518BF52EA033541F4801129
:106B4C0043F4801338D0A0FB02CE4FF00005E1FBDC
:106B5C0002E506F00042E0FB03E54FF00006E1FB26
:106B6C0003569CF0000F18BF4EF0010EA4F1FF0469
:106B7C00B6F5007F64F5407404D25FEA4E0E6D41A9
:106B8C0046EB060642EAC62141EA55514FEAC520BA
:106B9C0040EA5E504FEACE2EB4F1FD0C88BFBCF536
:106BAC00E06F1ED8BEF1004F08BF5FEA500E50F1E7
:106BBC00000041EB045170BD06F0004646EA0101AD
:106BCC0040EA020081EA0301B4EB5C04C2BFD4EBDF
:106BDC000C0541EA045170BD41F480114FF0000ED8
:106BEC00013C00F3AB8014F1360FDEBF002001F046
:106BFC00004170BDC4F10004203C35DA0C341BDCC0
:106C0C0004F11404C4F1200500FA05F320FA04F091
:106C1C0001FA05F240EA020001F0004221F00041C5
:106C2C0010EBD37021FA04F642EB06015EEA430E38
:106C3C0008BF20EAD37070BDC4F10C04C4F1200568
:106C4C0000FA04F320FA05F001FA04F240EA02001B
:106C5C0001F0004110EBD37041F100015EEA430EEC
:106C6C0008BF20EAD37070BDC4F1200500FA05F20C
:106C7C004EEA020E20FA04F301FA05F243EA02038B
:106C8C0021FA04F001F0004121FA04F220EA02009A
:106C9C0000EBD3705EEA430E08BF20EAD37070BDE0
:106CAC0094F0000F0FD101F00046400041EB0101C0
:106CBC0011F4801F08BF013CF7D041EA060195F0A2
:106CCC00000F18BF704703F00046520043EB03035C
:106CDC0013F4801F08BF013DF7D043EA0603704749
:106CEC0094EA0C0F0CEA135518BF95EA0C0F0CD054
:106CFC0050EA410618BF52EA4306D1D181EA03019A
:106D0C0001F000414FF0000070BD50EA410606BF93
:106D1C001046194652EA430619D094EA0C0F02D1D8
:106D2C0050EA013613D195EA0C0F05D152EA03361D
:106D3C001CBF104619460AD181EA030101F000413B
:106D4C0041F0FE4141F470014FF0000070BD41F084
:106D5C00FE4141F4780170BD70B54FF0FF0C4CF45E
:106D6C00E06C1CEA11541DBF1CEA135594EA0C0F7D
:106D7C0095EA0C0F00F0A7F8A4EB050481EA030ECA
:106D8C0052EA03354FEA013100F088804FEA0333B1
:106D9C004FF0805545EA131343EA12634FEA02227F
:106DAC0045EA111545EA10654FEA00260EF0004140
:106DBC009D4208BF964244F1FD0404F5407402D292
:106DCC005B084FEA3202B61A65EB03055B084FEA23
:106DDC0032024FF480104FF4002CB6EB020E75EB20
:106DEC00030E22BFB61A754640EA0C005B084FEA48
:106DFC003202B6EB020E75EB030E22BFB61A7546C5
:106E0C0040EA5C005B084FEA3202B6EB020E75EB0F
:106E1C00030E22BFB61A754640EA9C005B084FEA87
:106E2C003202B6EB020E75EB030E22BFB61A754694
:106E3C0040EADC0055EA060E18D04FEA051545EA83
:106E4C0016754FEA06164FEAC30343EA52734FEA2C
:106E5C00C2025FEA1C1CC0D111F4801F0BD141EAA5
:106E6C0000014FF000004FF0004CB6E711F4801F0A
:106E7C0004BF01430020B4F1FD0C88BFBCF5E06FEA
:106E8C003FF6AFAEB5EB030C04BFB6EB020C5FEAFA
:106E9C00500C50F1000041EB045170BD0EF0004E4F
:106EAC004EEA113114EB5C04C2BFD4EB0C0541EA81
:106EBC00045170BD41F480114FF0000E013C90E67E
:106ECC0045EA060E8DE60CEA135594EA0C0F08BF42
:106EDC0095EA0C0F3FF43BAF94EA0C0F0AD150EA41
:106EEC0001347FF434AF95EA0C0F7FF425AF1046D4
:106EFC0019462CE795EA0C0F06D152EA03353FF4FC
:106F0C00FDAE1046194622E750EA410618BF52EA78
:106F1C0043067FF4C5AE50EA41047FF40DAF52EA4C
:106F2C0043057FF4EBAE12E74FF0FF3C06E000BFE9
:106F3C004FF0010C02E000BF4FF0010C4DF804CDF6
:106F4C004FEA410C7FEA6C5C4FEA430C18BF7FEAB6
:106F5C006C5C1BD001B050EA410C0CBF52EA430CE4
:106F6C0091EA030F02BF90EA020F0020704710F164
:106F7C00000F91EA030F58BF994208BF90422CBFF3
:106F8C00D8176FEAE37040F0010070474FEA410CEC
:106F9C007FEA6C5C02D150EA013C07D14FEA430C0A
:106FAC007FEA6C5CD6D152EA033CD3D05DF8040B7B
:106FBC00704700BF8446104662468C4619466346AD
:106FCC0000E000BF01B5FFF7B7FF002848BF10F184
:106FDC00000F01BD4DF808EDFFF7F4FF0CBF0120C9
:106FEC0000205DF808FB00BF4DF808EDFFF7EAFF45
:106FFC0034BF012000205DF808FB00BF4DF808ED00
:10700C00FFF7E0FF94BF012000205DF808FB00BFF4
:10701C004DF808EDFFF7CEFF94BF012000205DF87E
:10702C0008FB00BF4DF808EDFFF7C4FF34BF01208B
:10703C0000205DF808FB00BF4FEA410C7FEA6C5C56
:10704C0002D150EA013C0AD14FEA430C7FEA6C5C56
:10705C0002D152EA033C02D14FF0000070474FF0CE
:10706C00010070474FEA410212F5001215D211D5FA
:10707C006FF47873B3EB625212D94FEAC12343F029
:10708C00004343EA505311F0004F23FA02F018BFAB
:10709C00404270474FF00000704750EA013005D174
:1070AC0011F0004008BF6FF0004070474FF0000037
:1070BC00704700BF4A0011D212F5001211D20DD543
:1070CC006FF47873B3EB62520ED44FEAC12343F0E2
:1070DC00004343EA505323FA02F070474FF000008C
:1070EC00704750EA013002D14FF0FF3070474FF03B
:1070FC0000007047002301461A46184600F074B889
:10710C00002910B591FBF2F402FB141306DB002BE3
:10711C0001DA01349B1AC0E9004310BD002BC4BF37
:10712C0004F1FF349B18F6E70A44914200F1FF3357
:10713C0000D1704710B511F8014B03F8014F914283
:10714C00F9D110BD02440346934200D1704703F8B5
:10715C00011BF9E738B50D4B1D68AB6B04467BB9C9
:10716C001820FEF781F80A4A0A4BA863C0E90023ED
:10717C00094B83600B23838101220023C0E9042384
:10718C00AB6B00221C615A6138BD00BFCC9F032041
:10719C000E33CDAB34126DE6ECDE0500024B01462E
:1071AC00186800F003B800BFCC9F032037B5044625
:1071BC0008460D4600F00FF8421C1146204601927D
:1071CC00FEF77AF8044618B1019A2946FFF7ACFF8E
:1071DC00204603B030BD034613F8012B002AFBD127
:1071EC00181A0138704700002DE9F843DFF8B88011
:1071FC000646D8F800001F460D46914600F056F89A
:10720C00254B1C6834B9254C1C60254B13B11B68ED
:10721C00C4F8883063681F2B07DDD8F8000000F035
:10722C0047F84FF0FF30BDE8F8834EB3D4F8880030
:10723C0088B91C4B23B9D8F8000000F038F8F0E7F7
:10724C004FF48470FEF710F80028F4D00023C0E946
:10725C004033C4F88800636840F8239001229A40B8
:10726C0000EB8301D0F800311343022EC0F800313B
:10727C00C1F8807002BFD0F804311A43C0F8042161
:10728C006368D8F800005A1C0233626044F823503B
:10729C0000F00EF80020C6E7E4E7032058E70320CF
:1072AC000000000075520D0030A00320704770479D
:1072BC00704700001D400D0059400D0081400D002D
:1072CC0085400D00000000004D4158333031303501
:1072DC0020776173206E6F7420666F756E642E203C
:1072EC00506C6561736520636865636B20776972A8
:1072FC00696E672F706F7765722E0043616C6962DF
:10730C00726174696E670043616C69627261746961
:10731C006F6E20646F6E65007B20226865617274ED
:10732C0052617465223A20222573222C202273701C
:10733C006F32223A20222573222C202274696D652B
:10734C005374616D70223A2022257322207D000A2D
:10735C005075626C697368656400686F6F6B2D7231
:10736C006573706F6E73652F53656E736F724461C6
:10737C007461002C2048523D002C2053504F323D5C
:10738C0000302E3030005F5F5F6060606161616172
:10739C0061626262626263636363636363636464B6
:1073AC006464646464646464646464646464646491
:1073BC006464636363636363636362626262626295
:1073CC0061616161606060605F5F5F5E5E5E5D5DBC
:1073DC005D5C5C5C5B5B5A5A595959585857575607
:1073EC005655555454535252515150504F4E4E4D78
:1073FC004C4C4B4A4A49484847464545444342420F
:10740C0041403F3E3E3D3C3B3A39383837363534C7
:10741C00333231302F2E2D2C2B2A292827262524A8
:10742C002322211F1E1D1C1B1A19171615141311AC
:10743C00100F0E0C0B0A09070605030201000000D1
:10744C00000000000000000053530D0049530D00D4
:10745C003F530D0035530D0029530D001D530D00E6
:10746C00F9640D0001650D0011530D0009530D0059
:10747C00FF520D00F5520D0031650D006E616E006E
:10748C00696E66006F7666006170700025592D2557
:10749C006D2D25645425483A254D3A2553257A00FF
:1074AC0061736374696D65000000000000000000EA
:1074BC00F95A0D00FF5A0D003D5B0D000D5B0D00E0
:1074CC00FB5A0D00000000000000000041600D00A0
:1074DC0031600D0033600D00000000000000000062
:1074EC0019610D0081610D0057610D00E1550D0012
:1074FC0049610D001B610D002B610D007B610D00BE
:10750C003B610D0013610D00000000000000000045
:10751C001D620D008B620D0063620D00E1550D00C4
:10752C0033620D004F620D0041620D005D620D0073
:10753C001F620D0025620D0000000000000000001D
:10754C0039630D0083630D005B630D003B630D001D
:10755C0063630D006B630D0073630D007B630D00A3
:10756C0000000000000000009B640D0091640D0001
:10757C0087640D003D640D007B640D006F640D008D
:10758C00F9640D0001650D0063640D005B640D0072
:10759C0051640D0047640D0031650D0000000000C2
:1075AC0000000000B9640D00C3640D00CD640D0033
:1075BC00D7640D00E1640D00ED640D00F9640D005D
:1075CC0001650D0009650D0015650D001D650D00AB
:1075DC0027650D0031650D000000000001450D0010
:1075EC005D530D0085530D00D1550D005D580D00F8
:1075FC0065590D00B5590D00A5640D0005660D000B
:04760C00000000007A
:047610000000000076
:1076140032000000010000000B0D0000FFFFFFFF1F
:10762400AC740D00D09F0320000000000000000097
:107634000000000000000000000000000000000046
:107644000000000000000000000000000000000036
:107654000000000000000000000000000000000026
:107664000000000000000000000000000000000016
:107674000000000000000000000000000000000006
:0C7684000000000000000000E9E7032007
:10769000FFFFFFFF00000102030405060708090AB7
:1076A0000B0C0D0E0F101112131415161718191AB2
:0876B0001B1C1D1E1F202800F9
:0476B80078563412BA
:04000003D000401CCD
:00000001FF
